:100000000C9483000C94B4000C94B4000C94B400D1
:100010000C94B4000C94B4000C94B4000C94B40090
:100020000C94B4000C94B4000C94B4000C94B40080
:100030000C94B4000C94B4000C94B4000C94B40070
:100040000C94B4000C94B4000C94B4000C94B40060
:100050000C94B4000C94B4000C94B4000C944D03B4
:100060000C94B4000C94C1030C9497030C94B4004A
:100070000C94B4000C94B4000C94B4000C94B40030
:100080000C94B4000C94B4000C94B4000C94B40020
:100090000C94B4000C94B4000C94B4000C94B40010
:1000A0000C94B4000C94B4000C94B4000C94B40000
:1000B0000C94B4000C94B4000C94B4000C94B400F0
:1000C0000C94B4000C94B4000C94B4000C94B400E0
:1000D0000C94B4000C94B4000C94B4000C94B400D0
:1000E0000C94B4000C943B010C9420050C94B901C1
:1000F0000C942D010C94DB000C9472010C941901EA
:100100000C940A01200511241FBECFEFD1E2DEBFFF
:10011000CDBF00E00CBF12E0A0E0B2E0E0E9FFE0FC
:1001200000E00BBF02C007900D92A632B107D9F7CD
:1001300022E0A6E2B2E001C01D92A03DB207E1F7C5
:1001400010E0C3E8D0E000E006C021970109802F4D
:10015000FE010E946F05C238D10780E00807A9F7A9
:100160000E94F7030C94C6070C9400003FB7F89464
:1001700080912F0290913002A0913102B091320211
:1001800026B5A89B05C02F3F19F00196A11DB11DF2
:100190003FBFBA2FA92F982F8827820F911DA11D2D
:1001A000B11DBC01CD0142E0660F771F881F991F6A
:1001B0004A95D1F70895CF92DF92EF92FF920F9375
:1001C0001F93CF93DF936C017A018B01C0E0D0E0E5
:1001D000CE15DF0589F0D8016D918D01D601ED9125
:1001E000FC910190F081E02DC6011995892B11F445
:1001F0007E0102C02196ECCFC701DF91CF911F9104
:100200000F91FF90EF90DF90CF900895089580E0D8
:1002100090E00895FC01538D448D252F30E0842F0C
:1002200090E0821B930B541710F0CF96089501971E
:100230000895FC01918D828D981761F0828DDF0108
:10024000A80FB11D5D968C91928D9F5F9F73928FC9
:1002500090E008958FEF9FEF0895FC01918D828DBE
:10026000981731F0828DE80FF11D858D90E008958B
:100270008FEF9FEF0895FC01918D228D892F90E0E3
:10028000805C9F4F821B91098F739927089583E3A8
:1002900092E00E943B0121E0892B09F420E0822FAB
:1002A0000895FC01848DDF01A80FB11DA35ABF4F33
:1002B0002C91848D90E001968F739927848FA68965
:1002C000B7892C93A089B1898C9180648C93938D8C
:1002D000848D981306C00288F389E02D80818F7D7C
:1002E00080830895EF92FF920F931F93CF93DF9334
:1002F000EC0181E0888F9B8D8C8D981305C0E88977
:10030000F989808185FD24C0F62E0B8D10E00F5FEA
:100310001F4F0F731127E02E8C8DE8120CC00FB603
:1003200007FCFACFE889F989808185FFF5CFCE01F6
:100330000E945101F1CF8B8DFE01E80FF11DE35AB0
:10034000FF4FF0820B8FEA89FB898081806207C0B2
:10035000EE89FF896083E889F989808180648083E0
:1003600081E090E0DF91CF911F910F91FF90EF908E
:100370000895CF93DF93EC01888D8823C9F0EA8933
:10038000FB89808185FD05C0A889B9898C9186FD8E
:100390000FC00FB607FCF5CF808185FFF2CFA8898B
:1003A000B9898C9185FFEDCFCE010E945101E7CF35
:1003B000DF91CF91089580E090E0892B21F00E9499
:1003C0004701811125C080E090E0892B41F080E059
:1003D00090E0892B21F00E94000081111CC080E078
:1003E00090E0892B41F080E090E0892B21F00E9481
:1003F0000000811113C080E090E0892BA1F080E023
:1004000090E0892B81F00E94000081110AC00895BC
:100410000E940000D8CF0E940000E1CF0E9400009F
:10042000EACF0C9400000895009769F0FC01019058
:100430000020E9F73197AF01481B590BBC0183E35A
:1004400092E00C94DB0080E090E008958F929F9200
:10045000AF92BF920F931F93CF93DF93CDB7DEB7C9
:10046000A1970FB6F894DEBF0FBECDBF19A24230E0
:1004700008F44AE08E010F5D1F4F842E912CA12CB1
:10048000B12CA50194010E944D05E62FB901CA01C6
:1004900001501109EA3014F4E05D01C0E95CD801B3
:1004A000EC93232B242B252B61F7C8010E94140207
:1004B000A1960FB6F894DEBF0FBECDBFDF91CF91EE
:1004C0001F910F91BF90AF909F908F9008954F9282
:1004D0005F926F927F928F929F92AF92BF92CF92D4
:1004E000DF92EF92FF926B017C01B42E9B01AC0175
:1004F0000E94AE07882319F082E192E027C026010E
:100500003701E89477F82FEF3FEF4FE75FE7C3013C
:10051000B2010E94AE0781110DC02FEF3FEF4FE7F0
:100520005FE7C301B2010E94E40518161CF486E1DE
:1005300092E00CC02FEF3FEF4FE75FE4C701B60139
:100540000E943C07181684F48AE192E0FF90EF9035
:10055000DF90CF90BF90AF909F908F907F906F90E3
:100560005F904F900C9414022FEF3FEF4FE75FEC3A
:10057000C701B6010E94E40587FDE6CF20E030E028
:10058000A901C701B6010E94E40587FF11C0E091EF
:100590003302F09134020190F081E02D6DE283E3AB
:1005A00092E019954C01F7FAF094F7F8F09402C034
:1005B000812C912CA12C60E070E080E09FE3AB14D3
:1005C00041F020E030E040E251E40E94E905A394CC
:1005D000F6CF9B01AC01C701B6010E9478052B0143
:1005E0003C010E945B066B017C010E948A069B0114
:1005F000AC01C301B2010E9477052B013C014AE026
:10060000C701B6010E9426027C01E80CF91CBB2040
:1006100069F0E0913302F09134020190F081E02D15
:100620006EE283E392E01995E80EF91EDB2CDD20E3
:1006300021F120E030E040E251E4C301B2010E9428
:1006400041072B013C010E945B064B01A12CB12C00
:100650004AE0C501B4010E942602E80EF91EC50158
:10066000B4010E948A069B01AC01C301B2010E9441
:1006700077052B013C01DA94DACFC701FF90EF90A8
:10068000DF90CF90BF90AF909F908F907F906F90B2
:100690005F904F9008950E94B3071F920F920FB67C
:1006A0000F9211242F933F938F939F93AF93BF93F8
:1006B00080912B0290912C02A0912D02B0912E02DC
:1006C00030912A0223E0230F2D3720F40196A11D3B
:1006D000B11D05C026E8230F0296A11DB11D209370
:1006E0002A0280932B0290932C02A0932D02B093A8
:1006F0002E0280912F0290913002A0913102B09190
:1007000032020196A11DB11D80932F0290933002F9
:10071000A0933102B0933202BF91AF919F918F911C
:100720003F912F910F900FBE0F901F9018951F9221
:100730000F920FB60F9211240BB60F922F933F9387
:100740004F935F936F937F938F939F93AF93BF93D9
:10075000EF93FF9383E392E00E945101FF91EF91A9
:10076000BF91AF919F918F917F916F915F914F91C9
:100770003F912F910F900BBE0F900FBE0F901F90C7
:1007800018951F920F920FB60F9211240BB60F926D
:100790002F938F939F93EF93FF93E0914302F091F8
:1007A00044028081E0914902F0914A0282FD12C028
:1007B000908180914C028F5F8F7320914D02821740
:1007C00051F0E0914C02F0E0ED5CFD4F958F80938D
:1007D0004C0201C08081FF91EF919F918F912F91E9
:1007E0000F900BBE0F900FBE0F901F90189578942E
:1007F00084B5826084BD84B5816084BD85B5826026
:1008000085BD85B5816085BD80916E0081608093D6
:100810006E0010928100809181008260809381003F
:10082000809181008160809381008091800081604F
:10083000809380008091B10084608093B1008091AA
:10084000B00081608093B0008091910082608093BD
:10085000910080919100816080939100809190003F
:100860008160809390008091A10082608093A100BC
:100870008091A10081608093A1008091A00081609F
:100880008093A0008091210182608093210180915A
:1008900021018160809321018091200181608093FA
:1008A000200180917A00846080937A0080917A00A0
:1008B000826080937A0080917A00816080937A00D0
:1008C00080917A00806880937A001092C100E09154
:1008D0004302F091440282E08083E0913F02F09174
:1008E00040021082E0914102F091420280E1808357
:1008F00010924B02E0914702F091480286E080831B
:10090000E0914502F0914602808180618083E09110
:100910004502F0914602808188608083E091450223
:10092000F0914602808180688083E0914502F091D9
:10093000460280818F7D8083E12CF12C60E0C7012D
:100940000E94B807B7010F2C000C880B990B0E946E
:100950008C0620E030E040E859E30E94410720E0A7
:1009600030E048EC52E40E94410760932602709305
:10097000270280932802909329028EE192E00E9440
:1009800014026091260270912702809128029091B2
:10099000290242E00E94670283E292E00E94140270
:1009A0002FEFE21AF20AE11480E1F80639F680E04E
:1009B00090E0A8ECB2E48093260290932702A093E3
:1009C0002802B09329028EE192E00E941402609105
:1009D000260270912702809128029091290242E01C
:1009E0000E94670283E292E00E9414020E94B60015
:1009F0004B015C0188EEC82E83E0D82EE12CF12C4F
:100A00000E94B600DC01CB0188199909AA09BB092B
:100A1000883E9340A105B10558F021E0C21AD108E3
:100A2000E108F10888EE880E83E0981EA11CB11C35
:100A3000C114D104E104F10419F70E94DB01C3CF12
:100A4000E3E3F2E01382128288EE93E0A0E0B0E0EC
:100A500084839583A683B78384E092E09183808327
:100A600085EC90E09587848784EC90E09787868773
:100A700080EC90E0918B808B81EC90E0938B828B6B
:100A800082EC90E0958B848B86EC90E0978B868B44
:100A9000118E128E138E148E0895A1E21A2EAA1BA7
:100AA000BB1BFD010DC0AA1FBB1FEE1FFF1FA2171E
:100AB000B307E407F50720F0A21BB30BE40BF50B1B
:100AC000661F771F881F991F1A9469F760957095A4
:100AD000809590959B01AC01BD01CF010895EE0F6B
:100AE000FF1F881F8BBF0790F691E02D1994505877
:100AF000BB27AA270E948F050C9402070E94F406C8
:100B000038F00E94FB0620F039F49F3F19F426F4D8
:100B10000C94F1060EF4E095E7FB0C94EB06E92F3C
:100B20000E94130758F3BA176207730784079507E3
:100B300020F079F4A6F50C9435070EF4E0950B2E11
:100B4000BA2FA02D0B01B90190010C01CA01A0011F
:100B50001124FF27591B99F0593F50F4503E68F17A
:100B60001A16F040A22F232F342F4427585FF3CFBB
:100B7000469537952795A795F0405395C9F77EF48C
:100B80001F16BA0B620B730B840BBAF09150A1F0D5
:100B9000FF0FBB1F661F771F881FC2F70EC0BA0F5B
:100BA000621F731F841F48F4879577956795B795E3
:100BB000F7959E3F08F0B0CF9395880F08F09927DE
:100BC000EE0F9795879508950E94C70608F481E077
:100BD00008950E94FD050C9402070E94FB0658F040
:100BE0000E94F40640F029F45F3F29F00C94EB06D4
:100BF00051110C9436070C94F1060E94130768F308
:100C00009923B1F3552391F3951B550BBB27AA27C5
:100C100062177307840738F09F5F5F4F220F331FFF
:100C2000441FAA1FA9F335D00E2E3AF0E0E832D0C7
:100C300091505040E695001CCAF72BD0FE2F29D0CA
:100C4000660F771F881FBB1F261737074807AB079C
:100C5000B0E809F0BB0B802DBF01FF2793585F4F11
:100C60003AF09E3F510578F00C94EB060C94360751
:100C70005F3FE4F3983ED4F3869577956795B795F3
:100C8000F7959F5FC9F7880F911D9695879597F9FE
:100C90000895E1E0660F771F881FBB1F6217730777
:100CA0008407BA0720F0621B730B840BBA0BEE1F8C
:100CB00088F7E09508950E941B0788F09F5798F0E9
:100CC000B92F9927B751B0F0E1F0660F771F881F51
:100CD000991F1AF0BA95C9F714C0B13091F00E946B
:100CE0003507B1E008950C943507672F782F8827D2
:100CF000B85F39F0B93FCCF3869577956795B39592
:100D0000D9F73EF490958095709561957F4F8F4F00
:100D10009F4F0895E89409C097FB3EF49095809505
:100D2000709561957F4F8F4F9F4F9923A9F0F92FB1
:100D300096E9BB279395F695879577956795B7952F
:100D4000F111F8CFFAF4BB0F11F460FF1BC06F5F15
:100D50007F4F8F4F9F4F16C0882311F096E911C027
:100D6000772321F09EE8872F762F05C0662371F048
:100D700096E8862F70E060E02AF09A95660F771F5C
:100D8000881FDAF7880F9695879597F90895990F38
:100D90000008550FAA0BE0E8FEEF16161706E80745
:100DA000F907C0F012161306E407F50798F0621B66
:100DB000730B840B950B39F40A2661F0232B242B3B
:100DC000252B21F408950A2609F4A140A6958FEF5A
:100DD000811D811D089597F99F6780E870E060E0AC
:100DE00008959FEF80EC089500240A9416161706C4
:100DF00018060906089500240A941216130614060C
:100E000005060895092E0394000C11F4882352F06E
:100E1000BB0F40F4BF2B11F460FF04C06F5F7F4F26
:100E20008F4F9F4F089557FD9058440F551F59F00D
:100E30005F3F71F04795880F97FB991F61F09F3FC7
:100E400079F087950895121613061406551FF2CFF0
:100E50004695F1DF08C0161617061806991FF1CF40
:100E600086957105610508940895E894BB27662767
:100E70007727CB0197F908950E94C70608F48FEFF2
:100E800008950E9454070C9402070E94F40638F05B
:100E90000E94FB0620F0952311F00C94EB060C94B5
:100EA000F10611240C9436070E94130770F3959FE6
:100EB000C1F3950F50E0551F629FF001729FBB2751
:100EC000F00DB11D639FAA27F00DB11DAA1F649FED
:100ED0006627B00DA11D661F829F2227B00DA11DA0
:100EE000621F739FB00DA11D621F839FA00D611D26
:100EF000221F749F3327A00D611D231F849F600D47
:100F0000211D822F762F6A2F11249F5750409AF06F
:100F1000F1F088234AF0EE0FFF1FBB1F661F771FFB
:100F2000881F91505040A9F79E3F510580F00C94C6
:100F3000EB060C9436075F3FE4F3983ED4F38695B6
:100F400077956795B795F795E7959F5FC1F7FE2B66
:100F5000880F911D9695879597F908950E94C70669
:100F6000880B990B089581E090E0F8940C94C607E3
:100F7000262FF999FECF1FBA92BD81BD20BD0FB6B5
:100F8000F894FA9AF99A0FBE01960895F894FFCF53
:100F9000000000007201DB000A01B9013B011901E8
:100FA0002D016E616E00696E66006F7666005043BB
:060FB0003A20000D0A00CA
:00000001FF
