:100000000C9470120C94A1120C94A1120C94A112D5
:100010000C94A1120C94A1120C94A1120C94A11294
:100020000C94A1120C94A1120C94A1120C94A11284
:100030000C94A1120C94A1120C94A1120C94A11274
:100040000C94A1120C94D1460C94A1120C94A11200
:100050000C94A1120C94A1120C9421690C941966B1
:100060000C94A1120C9475900C94A1120C94A112F2
:100070000C94A1120C94A1120C94A1120C94A11234
:100080000C94A1120C94A1120C94A1120C94A11224
:100090000C94A1120C94A1120C94A1120C946366FE
:1000A0000C94A1120C94A1120C94A1120C94A11204
:1000B0000C94A1120C94A1120C94A1120C94A112F4
:1000C0000C94A1120C94A1120C94A1120C94A112E4
:1000D0000C94A1120C94A1120C94A1120C94A112D4
:1000E0000C94A11268646B645A645E646464A264D4
:1000F0006F64736479647D64816487648B648F64E6
:10010000A264956499649D6435653A653F65496567
:100110005365CC655D6565656D65776581658B65E6
:100120009A65A465CC65AE65B865C265A890AF90C8
:10013000C390D090DA90F590DF90F590E490E9903C
:10014000F590F190084AD73B3BCE016E84BCBFFDD1
:10015000C12F3D6C74319ABD56833DDA3D00C77F97
:1001600011BED9E4BB4C3E916BAAAABE0000008030
:100170003F05A84CCDB2D44EB93836A9020C50B9BF
:10018000918688083CA6AAAA2ABE000000803F00EB
:100190004E414E494E495459494E46CDCCCC3D0A6C
:1001A000D7233C17B7D13877CC2B329595E6241F4F
:1001B000B14F0A000020410000C84200401C462008
:1001C000BCBE4CCA1B0E5AAEC59D744C4556454C20
:1001D000494E4700434F4D4D554E49434154494FB9
:1001E0004E0044525952554E004552524F52530000
:1001F000494E464F004543484F0020746F6F206CB6
:100200006F6E6720657874727573696F6E20707297
:100210006576656E7465640A0020636F6C642065A2
:100220007874727573696F6E2070726576656E741E
:1002300065640A0047322F47332062616420706191
:1002400072616D65746572730A0047322F473320FF
:1002500062616420706172616D65746572730A0019
:10026000205A3A200020593A200042656420583A2A
:1002700020002569730025696D20256973002569B3
:10028000682025696D20256973002569642025692A
:10029000682025696D202569730025697920256905
:1002A00064202569682025696D20256973005072D6
:1002B000696E742074696D653A2000F501F001E9FA
:1002C00001E201D401CB016F666600444542554707
:1002D0003A004361703A454D455247454E43595F98
:1002E0005041525345523A310A004361703A4341FA
:1002F00053455F4C494748545F4252494748544E22
:100300004553533A310A004361703A544F47474CC2
:10031000455F4C49474854533A310A004361703AAB
:10032000534F4654574152455F504F5745523A300C
:100330000A004361703A4C4556454C494E475F446C
:100340004154413A310A004361703A5A5F50524F6A
:1003500042453A310A004361703A4155544F4C4589
:1003600056454C3A310A004361703A5052494E5456
:100370005F4A4F423A310A004361703A50524F4748
:10038000524553533A300A004361703A4155544F35
:100390005245504F52545F54454D503A310A004334
:1003A00061703A454550524F4D3A310A0046495224
:1003B0004D574152455F4E414D453A4D61726C6912
:1003C0006E204D61726C696E5F312E312E365F5238
:1003D0006F626F56657273696F6E5F312E322E32A7
:1003E00020284769746875622920534F5552434548
:1003F0005F434F44455F55524C3A68747470733A8A
:100400002F2F6769746875622E636F6D2F526F624C
:100410006F33442F4D61726C696E2050524F544FB0
:10042000434F4C5F56455253494F4E3A312E302080
:100430004D414348494E455F545950453A526F62C9
:100440006F2043322045585452554445525F434F24
:10045000554E543A3120555549443A6365646532E6
:100460006132662D343161322D343734382D3962A2
:1004700031322D6335356336326633363766660A78
:10048000007A5F6D61783A20007A5F6D696E3A207C
:1004900000795F6D61783A2000785F6D696E3A206F
:1004A000005265706F7274696E6720656E64737454
:1004B0006F70207374617475730A00536574746986
:1004C0006E672054726176656C20416363656C656C
:1004D000726174696F6E3A200053657474696E6757
:1004E000205265747261637420416363656C657248
:1004F0006174696F6E3A200053657474696E672089
:100500005072696E7420416363656C6572617469D1
:100510006F6E3A200053657474696E67205072697B
:100520006E7420616E642054726176656C20416344
:1005300063656C65726174696F6E3A2000205A00C1
:10054000205900580020204D61783A2000205A00A0
:10055000205900580020204D696E3A20004F6E202F
:10056000004F666600536F667420656E6473746F27
:1005700070733A2000000136372603FF3C3D38FFF8
:100580000E2E303E1312FFFF080706FF061A1C1836
:10059000FFFF08440A0B43FFFFFFFFFFFF20643A01
:1005A0000020693A0020703A0020643A0020693A3D
:1005B0000020703A0043757272656E743A200043F1
:1005C000290A0061626C656420286D696E2074657B
:1005D0006D702000436F6C6420657874727564657B
:1005E000732061726520004B642000236465666996
:1005F0006E65202044454641554C545F004B6920B0
:100600000023646566696E65202044454641554C6B
:10061000545F004B70200023646566696E6520207E
:1006200044454641554C545F00504944204175743F
:100630006F74756E652066696E69736865642120E4
:1006400050757420746865206C617374204B702C35
:10065000204B6920616E64204B6420636F6E73745D
:10066000616E74732066726F6D2062656C6F7720A7
:10067000696E746F20436F6E666967757261746925
:100680006F6E2E680A00504944204175746F74756E
:100690006E65206661696C6564212074696D656FA3
:1006A00075740A00504944204175746F74756E6505
:1006B000206661696C6564212054656D70657261A6
:1006C0007475726520746F6F20686967680A00200E
:1006D0004B643A2000204B693A2000204B703A20AE
:1006E000000A20436C617373696320504944200AF7
:1006F000002054753A2000204B753A2000206D618F
:10070000783A2000206D696E3A200020643A20007B
:1007100020626961733A2000546F6F206661722015
:1007200066726F6D207265666572656E63652070B6
:100730006F696E740A003A20007A5F6D696E3A2024
:10074000202D3230207A5F6D61783A2020323000DF
:100750005A204F666673657420004175746F0020DF
:10076000452F443D00416476616E6365204B3D003A
:100770002028002920453A0020280029205A3A0044
:100780002028002920593A0020280020583A0053F8
:100790007465707065722063757272656E74207610
:1007A000616C75657320696E20252028416D70731A
:1007B000293A0A0043617365206C696768743A20BE
:1007C000004163746976652045787472756465725A
:1007D0003A20003C3C3C2067636F64655F540A002C
:1007E000203A2041465445520A0020206375727217
:1007F000656E745F706F736974696F6E3D00203A47
:10080000204245464F52450A0020206375727265AA
:100810006E745F706F736974696F6E3D003E3E3E2B
:100820002067636F64655F542800556E6B6E6F7749
:100830006E20636F6D6D616E643A20220020746FCC
:100840006F206C6F6E6720657874727573696F6E58
:100850002070726576656E7465640A0020636F6C43
:100860006420657874727573696F6E207072657636
:10087000656E7465640A00000020002300260029CC
:10088000002C002F003200000100000301060109C6
:100890000105050505070508080808020202020A05
:1008A0000A08080404040401010101010101010313
:1008B00003030303030303040707070C0C0C0C0CCE
:1008C0000C0C0C0202020206060606060606060BC1
:1008D0000B0B0B0B0B0B0B01021020200808102038
:1008E00040102040800201020108040201010204BC
:1008F000081020408080402010080402018004027B
:1009000001804020100804020108040201010204D1
:100910000810204080010204081020408000000AD6
:100920000B02090C0D0E0807030401000000000073
:1009300000000000000000000000000000000000B7
:100940000000000000000000001211100000000074
:100950000000000000000000000000000000000097
:100960000000004B494C4C45442E2000202D2049CE
:100970006E76616C69642065787472756465722046
:100980006E756D62657220210A002020506C616EC8
:100990006E657242756666657242797465733A2057
:1009A000002046726565204D656D6F72793A2000B2
:1009B000436F6D70696C65643A204A616E2020391E
:1009C00020323031380A00207C20417574686F7203
:1009D0003A20526F626F0A0037204A414E2032306F
:1009E000313800204C617374205570646174656403
:1009F0003A20004D61726C696E5F312E312E365F88
:100A0000526F626F56657273696F6E5F312E322E50
:100A1000320A004D61726C696E0020536F66747704
:100A20006172652052657365740A002057617463B2
:100A300068646F672052657365740A002042726FA4
:100A4000776E206F75742052657365740A002045B7
:100A5000787465726E616C2052657365740A00501B
:100A60006F77657255700A0073746172740A0020A2
:100A70005A3A0020593A0020583A00656E6473745F
:100A80006F7073206869743A200024F4D43050C326
:100A90008E20C2A24017828B7011127A910D816C48
:100AA000D90AA861E108C7586607615143061E4B81
:100AB0005D05C145A7041A411104093D9803713928
:100AC00031034036DB0265339102D4305402802E6C
:100AD0001D02632CEE01752AC501B028A001102764
:100AE00081018F2564012B244B01E0223401AC21CC
:100AF0001F018D200D01801FFC00841EED00971D3D
:100B0000DF00B81CD200E61BC600201BBC00641A24
:100B1000B200B219A8000A19A0006A189900D117EA
:100B2000910040178B00B516840031167E00B31576
:100B300079003A157300C7146F0058146A00EE1359
:100B400066008813630025135E00C7125B006C12F9
:100B5000570015125400C111510070114F0021119E
:100B60004B00D61049008D1047004610440002107B
:100B70004200C00F4000800F3E00420F3C00060FB5
:100B80003B00CB0E3800930E37005C0E3500270E6D
:100B90003400F30D3200C10D3100900D3000600DB6
:100BA0002E00320D2D00050D2C00D90C2B00AE0CA3
:100BB0002900850C29005C0C2700350C27000E0C41
:100BC0002600E80B2400C40B2400A00B23007D0B9F
:100BD00023005A0B2100390B2100180B2000F80AC2
:100BE0001F00D90A1E00BB0A1E009D0A1D00800AB4
:100BF0001D00630A1C00470A1B002C0A1B00110A77
:100C00001A00F7091A00DD091900C4091900AB0917
:100C10001900920917007B091800630917004C0995
:100C2000160036091600200916000A091500F508F5
:100C30001500E0081400CC081400B8081400A4083B
:100C40001400900813007D0812006B081300580868
:100C5000120046081200340811002308110012087F
:100C6000110001081100F0071000E0071000D00784
:100C70001000C0071000B0070F00A1071000910777
:100C80000E0083070F0074070F0065070E0057075B
:100C90000E0049070E003B070D002E070E0020072F
:100CA0000D0013070D0006070D00F9060C00ED06F8
:100CB0000D00E0060C00D4060C00C8060C00BC06B3
:100CC0000C00B0060C00A4060B0099060C008D0663
:100CD0000B0082060B0077060B006C060B0061060A
:100CE0000A0057060B004C060A0042060A003806A6
:100CF0000A002E060A0024060A001A060A00100638
:100D0000090007060A00FD050900F4050900EB05C6
:100D10000900E2050900D9050900D0050900C70549
:100D20000900BE050900B5050800AD050800A505C8
:100D300009009C050800940508008C05080084053E
:100D400008007C050800740508006C0507006505AF
:100D500008005D050700560508004E050700470519
:100D600007004005080038050700310507002A057F
:100D70000700230507001C050600160507000F05E0
:100D800007000805060002050700FB040600F5043D
:100D90000700EE040600E8040600E2040700DB0496
:100DA0000600D5040600CF040600C9040600C304EB
:100DB0000600BD040600B7040600B1040500AC043B
:100DC0000600A6040600A00405009B040600950486
:100DD0000500900406008A040500850405008004CF
:100DE00006007A04050075040500700405006B0414
:100DF000050066040500610405005C040500570455
:100E00000500520405004D04050048040500430494
:100E100005003E0404003A040500350405003004D2
:100E200004002C04050027040400230405001E040C
:100E300004001A04040016040500110404000D0443
:100E40000400090405000404040000040400FC0379
:100E50000400F8030400F4030400F0030400EC03AE
:100E60000400E8030400E4030400E0030400DC03DE
:100E70000400D8030400D4030400D0030400CC030E
:100E80000400C8030300C503030024F404D9201B95
:100E9000C40C5C0E9804C4095F0265077101F40577
:100EA000F900FB04B30048048700C103690058033C
:100EB000550003034500BE023A008402310053028C
:100EC0002A002902250004022000E4011C00C801B8
:100ED0001900AF011700980114008401130071017B
:100EE00010006101100051010E0043010D00360198
:100EF0000B002B010B0020010B00150109000C0158
:100F0000090003010800FB000800F3000800EB00E3
:100F10000700E4000600DE000600D8000600D2004C
:100F20000600CC000500C7000500C2000500BD009A
:100F30000400B9000400B5000400B1000400AD00D5
:100F40000400A9000400A5000300A20003009F0004
:100F500004009B000300980003009500020093002A
:100F60000300900003008D0002008B000300880046
:100F700002008600020084000300810002007F005E
:100F800002007D0002007B00020079000200770071
:100F9000010076000200740002007200010071007E
:100FA00002006F0002006D0001006C0002006A0088
:100FB0000100690002006700010066000100650091
:100FC0000100640002006200010061000100600095
:100FD00001005F0002005D0001005C0001005B0099
:100FE00001005A000100590001005800010057009B
:100FF000010056000100550001005400010053009B
:101000000000530001005200010051000100500097
:1010100001004F0001004E0000004E0001004D0095
:1010200001004C0001004B0000004B0001004A0091
:10103000010049000100480000004800010047008D
:101040000100460000004600010045000000450088
:101050000100440001004300000043000100420081
:10106000000042000100410000004100010040007A
:1010700001003F0000003F0001003E0000003E0074
:1010800001003D0000003D0001003C0000003C006C
:1010900000003C0001003B0000003B0001003A0062
:1010A00000003A000100390000003900010038005A
:1010B0000000380000003800010037000000370051
:1010C0000100360000003600000036000100350047
:1010D000000035000000350001003400000034003D
:1010E0000000340001003300000033000000330032
:1010F0000100320000003200000032000100310027
:10110000000031000000310001003000000030001C
:101110000000300001002F0000002F0000002F0011
:1011200000002F0001002E0000002E0000002E0005
:1011300001002D0000002D0000002D0000002D00FA
:1011400001002C0000002C0000002C0000002C00EE
:1011500001002B0000002B0000002B0000002B00E2
:1011600001002A0000002A0000002A0000002A00D6
:1011700001002900000029000000290000002900CA
:1011800000002900010028000000280000002800BD
:1011900000002800000028000100270000002700B0
:1011A00000002700000027000000270001002600A3
:1011B0000000260000002600000026000000260097
:1011C000010025000000250000002500000025008A
:1011D000000025000000250001002400000024007C
:1011E000000024000000240000002400010023006F
:1011F0000000230000002300000023000000230063
:101200000000230000002300010022000000220053
:101210000000220000002200000022000000220046
:101220000100210000002100000021000000210039
:10123000000021000000210000002100010020002A
:10124000000020000000200000002000000020001E
:1012500000002000000020000000200001001F000E
:1012600000001F0000001F0000001F0000001F0002
:1012700000001F0000001F0001001E0000001E00F3
:1012800000001E0000001E0000000B0BFFFFFF000F
:10129000000202026265640A002C2073797374658F
:1012A0006D2073746F70706564212048656174658A
:1012B000725F49443A200048656174696E67206630
:1012C00061696C65640048656174696E6720666178
:1012D000696C6564006F6B00627573793A207061A8
:1012E0007573656420666F7220696E7075740A008C
:1012F000627573793A2070617573656420666F72E8
:1013000020757365720A00627573793A2070726F86
:1013100063657373696E670A004B494C4C45442EF4
:1013200020004B494C4C20636175736564206279E1
:10133000204B494C4C20627574746F6E2F70696E2F
:101340000A004B494C4C45442E20004B494C4C2044
:1013500063617573656420627920746F6F206D75A9
:10136000636820696E6163746976652074696D6570
:10137000202D2063757272656E7420636F6D6D61D0
:101380006E643A20005072696E7465722068616CF8
:101390007465642E206B696C6C28292063616C6C09
:1013A0006564210A00000000000000FE42000020E9
:1013B000433C3C3C207365745F617869735F69737B
:1013C0005F61745F686F6D652800203A200A002015
:1013D0002063757272656E745F706F736974696F84
:1013E0006E3D005D203D20003E20686F6D655F6FA3
:1013F00066667365745B003E3E3E207365745F6194
:101400007869735F69735F61745F686F6D652800E9
:1014100000005C4200005C4200004041000000000F
:101420005761726E696E673A20486F6D696E67200A
:1014300042756D702044697669736F72203C20316B
:101440000A000202040000A0400000A040000000CA
:10145000400000FE420000FE42000020433C3C3CB5
:1014600020686F6D65617869732800203A203E20FE
:101470004146544552207365745F617869735F69B2
:10148000735F61745F686F6D650A00202063757219
:1014900072656E745F706F736974696F6E3D00483A
:1014A0006F6D65203220536C6F773A0A004D6F766E
:1014B0006520417761793A0A00486F6D65203120D7
:1014C000466173743A0A00FF01013E3E3E20686F98
:1014D0006D656178697328004572726F722077724A
:1014E0006974696E6720746F20454550524F4D21D5
:1014F0000A0020496E76616C6964206578747275A3
:101500006465722000000000000000000000000080
:10151000000000FE420000FE42000020430A20734B
:101520006F66745F656E6473746F705F6D61782051
:101530003D20000A20736F66745F656E6473746F7C
:10154000705F6D696E203D20000A20706F736974B2
:10155000696F6E5F7368696674203D200020617852
:1015600069733A0A20686F6D655F6F6666736574AC
:10157000203D2000466F7220003C3C3C20646F5FA1
:10158000626C6F636B696E675F6D6F76655F746FBA
:101590000A003E3E3E20646F5F626C6F636B696E53
:1015A000675F6D6F76655F746F00203A20736574B6
:1015B00075705F666F725F656E6473746F705F6F76
:1015C000725F70726F62655F6D6F76650A002020D2
:1015D00063757272656E745F706F736974696F6E34
:1015E0003D00203A20636C65616E5F75705F6166D7
:1015F0007465725F656E6473746F705F6F725F7035
:10160000726F62655F6D6F76650A00202063757288
:1016100072656E745F706F736974696F6E3D00649C
:101620006F5F70726F62655F7261697365280064D5
:1016300065706C6F793A2000203A207365745F7092
:10164000726F62655F6465706C6F7965640A002013
:101650002063757272656E745F706F736974696F01
:101660006E3D00203A203C3C3C20646F5F70726FFE
:1016700062655F6D6F76650A002020637572726522
:101680006E745F706F736974696F6E3D00203A20ED
:101690003E3E3E20646F5F70726F62655F6D6F7675
:1016A000650A00202063757272656E745F706F73D7
:1016B0006974696F6E3D0072657365745F6265641D
:1016C0005F6C6576656C0A003C3C3C20646F5F682B
:1016D0006F6D696E675F6D6F766528002C20002C3A
:1016E00020003E3E3E20646F5F686F6D696E675FED
:1016F0006D6F76652800205A0020590041424C2029
:1017000041646A7573746D656E7420580020286595
:101710006E61626C6564290A0020286469736162E5
:101720006C6564290A004C494E454152004175746C
:101730006F20426564204C6576656C696E673A205F
:1017400000204E6F7A7A6C65290A002026204162BB
:101750006F76650020262053616D65205A206173E5
:101760000020262042656C6F77002D4261636B007C
:101770002028526967687400205A3A0020593A00BC
:1017800050726F6265204F666673657420583A0028
:101790004649585F4D4F554E5445445F50524F4255
:1017A000450A0050726F62653A20004361727465A9
:1017B0007369616E0A004D616368696E65205479D2
:1017C00070653A20003C3C3C2067636F64655F476E
:1017D00032380A00203A203E20686F6D65590A00B1
:1017E000202063757272656E745F706F73697469BF
:1017F0006F6E3D00203A203E20686F6D65580A00EC
:10180000202063757272656E745F706F736974699E
:101810006F6E3D00203A203E20484F4D45415849CB
:1018200053285A290A00202063757272656E745F0E
:10183000706F736974696F6E3D003E20656E6473EE
:10184000746F70732E656E61626C65287472756555
:10185000290A003E3E3E2067636F64655F47323869
:101860000A0070012C0190012701B0012201C00182
:101870001D01F00118011002130130020E01600277
:10188000090190020401C002FF000003FA004003B6
:10189000F5008003F000D003EB002004E6007004A4
:1018A000E100E004DC004005D700C005D20040069E
:1018B000CD00D006C8008007C3003008BE00F00885
:1018C000B900C009B400B00AAF00B00BAA00D00C38
:1018D000A500000EA000500F9B00C01096005012F3
:1018E000910000148C00C0158700B0178200B01959
:1018F0007D00D01B7800001E730040206E009022F7
:101900006900F024640040275F0090295A00E02B12
:101910005500102E500020304B0010324600E033AE
:10192000410090353C001037370070383200A03944
:101930002D00B03A2800A03B2300603C1E00103D63
:101940001900903D1400103E0F00703E0A00C03E8A
:101950000500003F0000403FFBFF803FF6FFC03F17
:10196000F1FF4572723A204D494E54454D50004D9D
:10197000494E54454D5020747269676765726564BD
:10198000004572723A204D415854454D50004D412A
:101990005854454D502074726967676572656400DC
:1019A00000002100240027002A002D003000330011
:1019B00001010000040107010A01000022002500C6
:1019C00028002B002E003100340002010000050128
:1019D00008010B0120706F736974696F6E206F7559
:1019E00074206F662072616E67652E0A003F507228
:1019F0006F626520003C3C3C2067636F64655F4715
:101A000032390A00203A2047323920636F727265FA
:101A1000637465642058595A0A00202063757272F5
:101A2000656E745F706F736974696F6E3D0020201E
:101A300044697363726570616E63793A0020204D6A
:101A400061747269783A005A2066726F6D20507224
:101A50006F62653A00203A2047323920756E636F15
:101A6000727265637465642058595A0A00202063B5
:101A7000757272656E745F706F736974696F6E3DB5
:101A8000000A0A426564204C6576656C20436F72DB
:101A900072656374696F6E204D61747269783A0083
:101AA000202B000A436F727265637465642042657F
:101AB00064204865696768742076732E20426564E7
:101AC00020546F706F6C6F67793A0A00202B000A00
:101AD0004265642048656967687420546F706F6759
:101AE00072617068793A0A2020202B2D2D2D20421A
:101AF00041434B202D2D2B0A2020207C202020200C
:101B0000202020202020207C0A204C207C20202007
:101B100020282B29202020207C20520A2045207CB0
:101B200020202020202020202020207C20490A2046
:101B300046207C20282D29204E20282B29207C205F
:101B4000470A2054207C20202020202020202020F4
:101B5000207C20480A2020207C20202020282D299D
:101B6000202020207C20540A2020207C202020209F
:101B7000202020202020207C0A2020204F2D2D20D6
:101B800046524F4E54202D2D2B0A2028302C302920
:101B90000A004D65616E206F662073616D706C6523
:101BA0006420706F696E74733A200020643A2000DC
:101BB00020623A200045716E20636F656666696336
:101BC00069656E74733A20613A2000203A203E2005
:101BD00070726F62696E6720636F6D706C6574659B
:101BE0000A00202063757272656E745F706F73698E
:101BF00074696F6E3D0052756E6E696E6720696E16
:101C0000204452592D52554E206D6F64650A00478D
:101C10003239204175746F20426564204C657665C9
:101C20006C696E670A0028422961636B00284629A7
:101C3000726F6E74002852296967687400284C29F5
:101C4000656674003F4E756D626572206F66207028
:101C5000726F626520706F696E747320697320699A
:101C60006D706C61757369626C65202832206D69D6
:101C70006E696D756D292E0A003F285629657262BE
:101C80006F7365206C6576656C20697320696D7073
:101C90006C61757369626C652028302D34292E0AB9
:101CA00000203A203E3E3E2067636F64655F473206
:101CB000390A00202063757272656E745F706F73ED
:101CC0006974696F6E3D00290A002062797465733A
:101CD0003B20637263200053657474696E677320E0
:101CE00053746F726564202800202863616C6375EB
:101CF0006C6174656429210A0020213D200045455E
:101D000050524F4D20435243206D69736D6174638F
:101D100068202D202873746F726564292000290AB9
:101D2000002062797465733B206372632000207326
:101D3000746F7265642073657474696E6773207262
:101D40006574726965766564202800204D61726C47
:101D5000696E3D563431290A0028454550524F4D91
:101D60003D00454550524F4D2076657273696F6E48
:101D7000206D69736D61746368200050726F6265D5
:101D8000204F6666736574206973205A3A200050AC
:101D9000726F7465637465642050696E0A005374D1
:101DA000616E6461726420446576696174696F6E06
:101DB0003A20002052616E67653A2000204D61781C
:101DC0003A2000204D696E3A20004D65616E3A2040
:101DD0000046696E6973686564210A002072616E4D
:101DE00067653A2000206D61783A2000206D696EA9
:101DF0003A2000207369676D613A2000206D6561AB
:101E00006E3A20003A207A3A2000206F66200020A7
:101E10005A00205900205800476F696E6720746F80
:101E20003A00436C6F636B776973650A00436F75A3
:101E30006E7465722D0020446972656374696F6EFB
:101E40003A2000202020616E676C653A20005374B0
:101E5000617274696E67207261646975733A2000FB
:101E6000506F736974696F6E696E6720746865205E
:101E700070726F62652E2E2E0A003F4E756D626580
:101E800072206F66206C65677320696E206D6F76B7
:101E9000656D656E74206E6F7420706C617573690A
:101EA000626C652028302D3135292E0A00590058E2
:101EB000003F53616D706C652073697A65206E6FA9
:101EC0007420706C61757369626C652028342D35DF
:101ED00030292E0A004D3438205A2D50726F626519
:101EE000205265706561746162696C69747920540F
:101EF0006573740A003F2856296572626F73652006
:101F00006C6576656C20697320696D706C617573A2
:101F100069626C652028302D34292E0A004B494C0B
:101F20004C45442E20002C20002C2000203A207309
:101F3000796E635F706C616E5F706F736974696FE7
:101F40006E0A00202063757272656E745F706F7325
:101F50006974696F6E3D00656E7175657565696E52
:101F6000672022004E6F204C696E65204E756D62B1
:101F70006572207769746820636865636B73756D3B
:101F80002C204C617374204C696E653A20005072AD
:101F9000696E7465722073746F7070656420647507
:101FA0006520746F206572726F72732E2046697897
:101FB00020746865206572726F7220616E6420758E
:101FC0007365204D39393920746F207265737461DF
:101FD00072742E202854656D706572617475726517
:101FE0002069732072657365742E205365742069AF
:101FF00074206166746572207265737461727469AD
:102000006E67290A004E6F20436865636B73756DB8
:102010002077697468206C696E65206E756D6265E5
:10202000722C204C617374204C696E653A200063F9
:102030006865636B73756D206D69736D617463683A
:102040002C204C617374204C696E653A20004C69F9
:102050006E65204E756D626572206973206E6F74B7
:10206000204C617374204C696E65204E756D6265FD
:10207000722B312C204C617374204C696E653A20B0
:10208000004D31313000202F0020403A006F6B00AE
:1020900020573A004D313133205300205A3A002066
:1020A000593A0020436F756E7420583A0020453A23
:1020B00000205A3A0020593A00583A002F2F2000A9
:1020C000426564204C6576656C696E6720004661E8
:1020D000696C656420746F20656E61626C65204276
:1020E0006564204C6576656C696E670A00426564BC
:1020F000204C6576656C20436F7272656374696FFE
:102100006E204D61747269783A0048617264636F41
:102110006465642044656661756C742053657474ED
:10212000696E6773204C6F616465640A00B80B00C8
:1021300000B80B000064000000E8030000000096F7
:102140004300009643000040410000C8413914A0FC
:10215000423914A04200004844008011432052003C
:1021600020204D393030204B004C696E6561722063
:10217000416476616E63653A0A0020204D3835313E
:10218000205A005A2D50726F6265204F6666736543
:102190007420286D6D293A0A00204400204900204F
:1021A000204D3330342050002044002049002020AE
:1021B0004D333031205000504944207365747469A8
:1021C0006E67733A0A0020204D34323020530041AC
:1021D00075746F20426564204C6576656C696E6726
:1021E0003A0A00205A0020590020204D3230362073
:1021F0005800486F6D65206F66667365743A0A0013
:10220000204500205A00205900205800204200207C
:10221000540020204D323035205300416476616EE9
:102220006365643A20533C6D696E5F6665656472F0
:102230006174653E20543C6D696E5F7472617665B1
:102240006C5F66656564726174653E20423C6D69D1
:102250006E5F7365676D656E745F74696D655F6DE4
:10226000733E20583C6D61785F78795F6A65726B68
:102270003E205A3C6D61785F7A5F6A65726B3E20E2
:10228000453C6D61785F655F6A65726B3E0A002050
:10229000540020520020204D323034205000416341
:1022A00063656C65726174696F6E2028756E697400
:1022B000732F7332293A20503C7072696E745F61DB
:1022C0006363656C3E20523C726574726163745F37
:1022D000616363656C3E20543C74726176656C5F2B
:1022E000616363656C3E0A00204500205A00205956
:1022F0000020204D3230312058004D6178696D75D5
:102300006D20416363656C65726174696F6E20282E
:10231000756E6974732F7332293A0A0020450020C4
:102320005A0020590020204D3230332058004D6192
:1023300078696D756D20666565647261746573207A
:1023400028756E6974732F73293A0A00204500209E
:102350005A0020590020204D39322058005374650E
:1023600070732070657220756E69743A0A002020BF
:102370004D3230302044300A0020204D32303020A1
:1023800044002044697361626C65640A0046696CAC
:10239000616D656E742073657474696E67733A005D
:1023A0002020473231202020203B20556E69747355
:1023B00020696E206D6D0A00204469736372657038
:1023C000616E63793A00326E642050726F626520EC
:1023D0005A3A00203A203C3C3C2072756E5F7A5F8E
:1023E00070726F62650A00202063757272656E7488
:1023F0005F706F736974696F6E3D00317374205044
:10240000726F6265205A3A00203A203E3E3E2072AA
:10241000756E5F7A5F70726F62650A002020637567
:102420007272656E745F706F736974696F6E3D0070
:1024300050726F62696E67206661696C65640A003C
:102440004572726F723A003C3C3C2070726F62655C
:102450005F70740A00205A3A200020593A20004246
:10246000656420583A2000203A200A002020637535
:102470007272656E745F706F736974696F6E3D0020
:1024800073746F77290A002C20002C20003E3E3EFA
:102490002070726F62655F707428002066697273C5
:1024A000740A005A0059005800486F6D6520006595
:1024B00063686F3A00544845524D414C2052554E86
:1024C0004157415900546865726D616C2052756EB8
:1024D0006177617900526573656E643A200049AB9B
:1024E00011241FBECFEFD1E2DEBFCDBF00E00CBF95
:1024F00013E0A0E0B2E0ECE5FFE601E00BBF02C0B4
:1025000007900D92A633B107D9F722E1A6E3B3E015
:1025100001C01D92A73EB207E1F712E1C0E7D2E188
:1025200000E006C021970109802FFE010E9480B7BC
:10253000CF36D10780E00807A9F70E946AA60C945D
:10254000ACB70C9400002F923F924F925F926F9223
:102550007F928F929F92AF92BF92CF92DF92EF9233
:10256000FF920F931F93CF93DF93CDB7DEB7C2587F
:10257000D1090FB6F894DEBF0FBECDBF0091530A4C
:1025800020E6029F80011124035A1C4F80915911AB
:1025900080FF1AC0EFEAF4E284917F013FEFE31A73
:1025A000F30A811102C0780104C00E94548DF70122
:1025B000F3CFD7018D917D01882319F00E94548DAE
:1025C000F8CF8AE00E94548D81E090E09093F40F60
:1025D0008093F30F10925603109255038FE380936C
:1025E0005F0910925E0910925D09109250031092DB
:1025F00051031092520310925303F80180810F5F30
:102600001F4F8032D1F38E34B1F4818190ED980F59
:102610009A3020F08D3211F08B3269F43296DF015E
:1026200031962C9120532A30D0F3CD01FC01019634
:1026300020812032D9F3F093FB0FE093FA0F7F0152
:10264000BFEFEB1AFB0A10816AE270E0C7010E943B
:102650008CB7009731F0FC01319780818032E1F333
:1026600011821D3429F0143519F0173409F0CDC04A
:10267000F70180812FEFE21AF20A8032C9F380530A
:102680008A3008F0C2C010935F0920915D09309133
:102690005E094AE03196429FC001439F900D11248C
:1026A000DF0111972C91022E000C330B20533109BE
:1026B000280F391F808180538A3060F330935E0980
:1026C00020935D09DF0131968C918032D9F31D345E
:1026D000D1F42E31310591F03CF42731310571F000
:1026E0002C31310581F40AC02537310564F02737D4
:1026F000310524F0203A43E0340729F4B09356031F
:10270000A093550382C01092560310925503009176
:10271000FA0F61E070E0CD0101964C91442309F479
:1027200074C0413299F41D3489F42032310571F4BA
:10273000909356038093550363E270E00E948CB738
:10274000009709F462C0DC011C925FC05FEBD52EDC
:10275000D40EE9E1ED15C0F1FC01BE2FAF2F519170
:102760005032D9F38B2F9A2FE0EDE50FEA3040F08D
:10277000E3EDE50FE23020F05B3211F00C94172E00
:10278000DC01AD2CB12C750143E0F594E7944A953A
:10279000E1F7A701405B5C4F7A014D2D4770FB01CB
:1027A00002C0EE0FFF1F4A95E2F7AF01F70150811B
:1027B000452B4083109711F0A01B01C0A0E0F5014C
:1027C000EA5CFC4FA0830AC0409155035091560328
:1027D000452B21F4B0935603A0935503DC014C9193
:1027E00041544A3110F4DC0196CFFC01DF013196EF
:1027F0009C9190539A30D0F3AD01CA014F5F5F4F67
:10280000DC01EC91E032C9F3EECF80915F098D34A9
:1028100011F40C94301D843511F40C948C2D8734F4
:1028200011F00C94F72D80915D0990915E098C3127
:10283000910509F4B5C7A4F48430910544F48230BD
:1028400091050CF026C197FF32C00C94102E8430F5
:10285000910509F4E6C2059709F420C30C94102EE3
:102860008432910511F40C94611C74F48E3191053D
:1028700009F49FC70CF499C7839711F00C94102E9C
:102880000E94598A0C94102E8B35910511F40C94EA
:102890006A1C8C35910511F40C946F1C8A359105D6
:1028A00011F00C94102E10925C030C94102E809159
:1028B0002202882311F40C94102E0E94D25B80E136
:1028C00090E10E94C4550E94498D8091591183FD69
:1028D0008FC0C0901C10D0901D10E0901E10F09082
:1028E0001F102091BD113091BE114091BF11509128
:1028F000C011C701B6010E9458B0882309F478C0FE
:1029000080916009811138C06091010270910202CA
:10291000072E000C880B990B0E945EB09B01AC0146
:1029200060915C1070915D1080915E1090915F10CD
:102930000E9458B087FF20C0C092BD11D092BE1136
:10294000E092BF11F092C011EFEAF4E284918F019E
:102950000F5F1F4F882321F00E94548DF801F6CF9E
:10296000E9E1F2E084918F010F5F1F4F882321F08E
:102970000E94548DF801F6CFC0901C10D0901D100D
:10298000E0901E10F0901F102091BD113091BE11EB
:102990004091BF115091C011C701B6010E9490B47F
:1029A00020E030E048E453E40E94B7B6181604F57E
:1029B000C092BD11D092BE11E092BF11F092C01131
:1029C000EFEAF4E284918F010F5F1F4F882321F01B
:1029D0000E94548DF801F6CFEAEFF1E084918F0167
:1029E0000F5F1F4F882321F00E94548DF801F6CF0E
:1029F000209110103091111040911210509113102D
:102A00006091B1117091B2118091B3119091B41194
:102A10000E9458B081111DC02091141030911510E2
:102A200040911610509117106091B5117091B61128
:102A30008091B7119091B8110E9458B0811109C0CE
:102A40006091430270914402809145029091460248
:102A50001AC060912F0270913002072E000C880B73
:102A6000990B0E945EB02091430230914402409144
:102A70004502509146020E94BDB02AE037ED43E284
:102A80005CE30E94BDB00E94E35D0E94D95D0C949E
:102A9000102E20912202222311F40C94102E11E00A
:102AA000029709F010E00E94D25B19821A821B8201
:102AB0001C821D821E821F82188682E50E943D8D27
:102AC000882309F42CC10E94DB8C6B017C012091CE
:102AD000B1113091B2114091B3115091B4112AA3A8
:102AE0003BA34CA35DA38090B5119090B611A0902C
:102AF000B711B090B8118091101090911110A09161
:102B00001210B09113108EA39FA3A8A7B9A720916C
:102B100014103091151040911610509117102AA7DB
:102B20003BA74CA75DA720E030E0A901C701B60193
:102B30000E9458B0882309F408C12AA13BA14CA1E6
:102B40005DA16EA17FA188A599A50E9458B08111B1
:102B50000BC0A50194016AA57BA58CA59DA50E942B
:102B600058B0882309F4F1C020E030E0A901C70182
:102B7000B6010E9458B0881F8827881F181309C003
:102B800080E090E0A0E8BFE38AAF9BAFACAFBDAF01
:102B900008C020E030E040E85FEB2AAF3BAF4CAF2D
:102BA0005DAF2AA13BA14CA15DA16EA17FA188A52B
:102BB00099A50E9490B46AAB7BAB8CAB9DABA50191
:102BC00094016AA57BA58CA59DA50E9490B46EABCF
:102BD0007FAB88AF99AF2AA93BA94CA95DA9CA01CF
:102BE000B9010E94BDB02B013C012EA93FA948ADFF
:102BF00059ADCA01B9010E94BDB09B01AC01C3012E
:102C0000B2010E9491B40E94FCB66EA77FA788AB68
:102C100099AB20E030E040E05FE30E94BDB02B01C3
:102C20003C01A7019601C701B6010E94BDB06B012E
:102C30007C01A3019201C301B2010E94BDB09B01BE
:102C4000AC01C701B6010E9490B40E94FCB69B0182
:102C5000AC016AAD7BAD8CAD9DAD0E94BDB06B018A
:102C60007C012EA13FA148A559A56AA17BA18CA1F9
:102C70009DA10E9491B420E030E040E05FE30E941B
:102C8000BDB02B013C016EA97FA988AD99AD9058CC
:102C90002EA53FA548A959A90E946DB59B01AC017D
:102CA000C701B6010E94BDB09B01AC01C301B201D6
:102CB0000E9491B42AA13BA14CA15DA10E9490B4B5
:102CC00069837A838B839C832AA53BA54CA55DA54C
:102CD000C501B4010E9491B420E030E040E05FE320
:102CE0000E94BDB02B013C012EA53FA548A959A9C2
:102CF0006AA97BA98CA99DA90E946DB59B01AC0115
:102D0000C701B6010E94BDB09B01AC01C301B20175
:102D10000E9491B4A50194010E9490B412C089E46C
:102D20000E943D8D882331F00E94DB8C69837A8379
:102D30008B839C838AE40E943D8D882331F00E941E
:102D4000DB8C6D837E838F83988720E030E0A90140
:102D500069817A818B819C810E9458B081110CC05D
:102D600020E030E0A9016D817E818F8198850E94ED
:102D700058B0882309F43BC080E50E943D8D88232C
:102D800041F00E94BB8C082F8536E8F0E0E4F4E2C5
:102D900002C000E018C084917F013FEFE31AF30AFC
:102DA000882321F00E94548DF701F5CFEAE4F2E088
:102DB00084917F014FEFE41AF40A882321F00E94E6
:102DC000548DF701F5CF412FBE016F5F7F4F002378
:102DD00031F081EB91E10E945B560150F4CF80E12C
:102DE00090E10E945B560E94498D0C94102EE0E405
:102DF000F4E284918F010F5F1F4F882321F00E941E
:102E0000548DF801F6CFE4E3F2E084918F010F5F77
:102E10001F4F882311F40C94102E0E94548DF8013A
:102E2000F4CF80E50E943D8D882329F00E949B8C81
:102E30006B017C0103C0C12CD12C760183E50E947B
:102E40003D8D882361F00E94DB8C20E030E04AE772
:102E500054E40E94BDB00E94DAB56B017C010E946F
:102E6000C7460E94498D8091FC0F9091FD0FA09163
:102E7000FE0FB091FF0FC80ED91EEA1EFB1E0E9466
:102E80000D66DC01CB018C199D09AE09BF09B7FDA8
:102E900002C00C94102E0E94FA51F1CF80912202B0
:102EA000882311F40C94102E0E94D25B89E40E94B6
:102EB0003D8D882329F00E94DB8C2B013C0103C04F
:102EC000412C512C32018AE40E943D8D882329F047
:102ED0000E94DB8C4B015C0103C0812C912C5401BE
:102EE00080E50E943D8D882329F00E94DB8C6B01D8
:102EF0007C0103C0C12CD12C760181E50E943D8D5F
:102F0000882339F00E94DB8C6AA37BA38CA39DA34A
:102F100004C01AA21BA21CA21DA25091F20FEB9694
:102F20005FAFEB9760912F0270913002072E000C7B
:102F3000880B990B0E945EB02091430230914402AD
:102F400040914502509146020E94BDB02AE037ED03
:102F500043E25CE30E94BDB0EF966CAF7DAF8EAFF5
:102F60009FAFEF978091B1119091B211A091B311E1
:102F7000B091B4118EA39FA3A8A7B9A7A3019201F2
:102F8000BC01CD010E9491B427966CAF7DAF8EAF8E
:102F90009FAF27974090B5115090B6116090B71130
:102FA0007090B811A5019401C301B2010E9491B4BF
:102FB0002B966CAF7DAF8EAF9FAF2B9720911010EB
:102FC000309111104091121050911310C701B601A9
:102FD0000E9491B42F966CAF7DAF8EAF9FAF2F97AD
:102FE0002091141030911510409116105091171027
:102FF0006AA17BA18CA19DA10E9491B463966CAF44
:103000007DAF8EAF9FAF6397CEA0DFA0E8A4F9A4F9
:10301000C982DA82EB82FC824D825E826F82788680
:103020000E940D669B01AC0128533F4F4F4F5F4FED
:10303000E7962CAF3DAF4EAF5FAFE797BDEC8B2E61
:10304000BCEC9B2EA92CBDE3BB2E1AA21EA21AA675
:103050001EA60E9457450E940D668B019C01E796B3
:10306000CCACDDACEEACFFACE7970C191D092E091A
:103070003F0937FD0EC09B01AC0128533F4F4F4F16
:103080005F4FE7962CAF3DAF4EAF5FAFE7970E9423
:10309000FA51A5019401BAA1AEA1FAA5EEA56B2F34
:1030A0007A2F8F2F9E2F0E9491B42B011C0120E0BC
:1030B00030E040E85FE30E94B7B6181634F4412CC4
:1030C000512CF0E82F2EAFE33A2E80911010909102
:1030D0001110A0911210B091131067968CAF9DAF94
:1030E000AEAFBFAF6797C090B111D090B211E09072
:1030F000B311F090B4116B96CCAEDDAEEEAEFFAE78
:103100006B973F922F925F924F926796ACACBDAC9B
:10311000CEACDFAC67972F96ECACFDAC0EAD1FAD1F
:103120002F9727962CAD3DAD4EAD5FAD27976B9693
:103130006CAD7DAD8EAD9FAD6B970E9457310F90FA
:103140000F900F900F906AAB7EAB8AAF9EAF20912D
:1031500014103091151040911610509117106F9661
:103160002CAF3DAF4EAF5FAF6F978091B51190918F
:10317000B611A091B711B091B811AB968CAF9DAFBD
:10318000AEAFBFAFAB973F922F925F924F926F96C9
:10319000ACACBDACCEACDFAC6F976396ECACFDAC29
:1031A0000EAD1FAD63972B962CAD3DAD4EAD5FAD13
:1031B0002B97AB966CAD7DAD8EAD9FADAB970E945E
:1031C00057310F900F900F900F906FAF21967FAFF8
:1031D000219722968FAF229723969FAF2397C9807E
:1031E000DA80EB80FC80AF96CCAEDDAEEEAEFFAE0B
:1031F000AF972D813E814F815885E3962CAF3DAF2F
:103200004EAF5FAFE397A0961FAEA0977AA16EA1D5
:103210009AA58EA5272F362F492F582F642D752D4F
:10322000822D932D0E9490B42FE632E143E05BE3C0
:103230000E9458B087FF06C0A0963FADA0973111FD
:10324000DEC1C4C1242D352D422D532DBAA1AEA10E
:10325000FAA5EEA56B2F7A2F8F2F9E2F0E9491B487
:1032600020E030E040E05FE30E94BDB03B014C0154
:103270009F928F937F926F936796ACACBDACCEACB0
:10328000DFAC67972F96ECACFDAC0EAD1FAD2F9762
:1032900027962CAD3DAD4EAD5FAD27976B966CADCF
:1032A0007DAD8EAD9FAD6B970E9457310F900F9003
:1032B0000F900F90A4966FAFA497E8967FAFE89712
:1032C000E9968FAFE997EA969FAFEA979F928F9220
:1032D0007F926F926F96ACACBDACCEACDFAC6F970B
:1032E0006396ECACFDAC0EAD1FAD63972B962CAD89
:1032F0003DAD4EAD5FAD2B97AB966CAD7DAD8EAD5C
:103300009FADAB970E9457310F900F900F900F9089
:103310005B018C012AA93EA94AAD5EADAF966CADAA
:103320007DAD8EAD9FADAF970E9491B420E030E0AF
:1033300040E05FE30E94BDB09B01AC01A4966FAD7D
:10334000A497E8967FADE897E9968FADE997EA965E
:103350009FADEA970E9490B46B017C01E894F7F866
:103360002FAD21963FAD219722964FAD2297239600
:103370005FAD2397E3966CAD7DAD8EAD9FADE397CA
:103380000E9491B420E030E040E05FE30E94BDB0D5
:103390009B01AC01B501C8010E9490B49B01AC0136
:1033A0005F77C701B6010E9491B42DEC3CEC4CEC68
:1033B0005DE30E9458B018160CF03ECFAFAE2196D8
:1033C000BFAE219722960FAF229723961FAF239768
:1033D000A4964FADA4974AABE8965FADE8975EAB75
:1033E000E9968FADE9978AAFEA969FADEA979EAFCF
:1033F00023011401A1E0A096AFAFA09707CFA701CA
:103400009601C701B6010E9491B49B01AC01BAA11B
:10341000AEA1FAA5EEA56B2F7A2F8F2F9E2F0E94BB
:1034200091B4962E872E782E692E20E030E040E869
:103430005FE3D401F3016B2F7A2F8F2F9E2F0E9411
:10344000B7B687FFDCC06F927F928F929F9267968C
:10345000ACACBDACCEACDFAC67972F96ECACFDACA2
:103460000EAD1FAD2F9727962CAD3DAD4EAD5FAD88
:1034700027976B966CAD7DAD8EAD9FAD6B970E941F
:1034800057310F900F900F900F90A0966FAFA097AD
:10349000A4967FAFA497E8968FAFE897E9969FAF81
:1034A000E9976F927F928F929F926F96ACACBDAC72
:1034B000CEACDFAC6F976396ECACFDAC0EAD1FAD40
:1034C00063972B962CAD3DAD4EAD5FAD2B97AB9674
:1034D0006CAD7DAD8EAD9FADAB970E9457310F9017
:1034E0000F900F900F905B018C01A0962FADA097CD
:1034F000A4963FADA497E8964FADE897E9965FADE7
:10350000E997AF966CAD7DAD8EAD9FADAF970E9444
:1035100091B420E030E040E05FE30E94BDB09B0149
:10352000AC016AA97EA98AAD9EAD0E9490B46B01E0
:103530007C01E894F7F89501A801E3966CAD7DADA8
:103540008EAD9FADE3970E9491B420E030E040E063
:103550005FE30E94BDB09B01AC016FAD21967FADD2
:10356000219722968FAD229723969FAD23970E9495
:1035700090B49B01AC015F77C701B6010E9491B482
:103580002DEC3CEC4CEC5DE30E94B7B61816BCF198
:10359000AFAE2196BFAE219722960FAF229723960A
:1035A0001FAF2397A096BFADA097BAABA496EFAD7F
:1035B000A497EEABE896FFADE897FAAFE996CFACEB
:1035C000E997CEAE492C582C272C362C7AA16EA127
:1035D0009AA58EA5272F362F492F582F642D752D8C
:1035E000822D932D0E9490B46B017C012DEC3CEC5C
:1035F0004CEC5DE30E94B7B618160CF000CF7AA130
:103600006EA19AA58EA5272F362F492F582F642DEE
:10361000752D822D932D0E9490B44B015C018AA9D7
:103620009EA9AAADBEAD89839A83AB83BC838FADBF
:1036300021969FAD21972296AFAD22972396BFADDD
:1036400023978D839E83AF83B887242D352D422DFC
:10365000532D60E070E080E89FE30E9490B46B011E
:103660007C012091B9113091BA114091BB11509158
:10367000BC110E94BDB06AA37BA38CA39DA3209123
:1036800018103091191040911A1050911B10642D90
:10369000752D822D932D0E94BDB09B01AC016AA1B6
:1036A0007BA18CA19DA10E9491B469877A878B87A9
:1036B0009C872091BD113091BE114091BF11509156
:1036C000C011C701B6010E94BDB06B017C01209101
:1036D0001C1030911D1040911E1050911F10642D30
:1036E000752D822D932D0E94BDB09B01AC01C701A9
:1036F000B6010E9491B46D877E878F87988BCE012B
:1037000001960E94C45589819A81AB81BC818E8BC0
:103710009F8BA88FB98F8D819E81AF81B8858A8F4D
:103720009B8FAC8FBD8F89859A85AB85BC858E8F2D
:103730009F8FA8A3B9A3AE01425E5F4FBE01665E34
:103740007F4FCE0146960E949F9CEB96CFACEB97A5
:10375000EF96ECACFDAC0EAD1FADEF979E01235F75
:103760003F4FAE01425E5F4FBE01665E7F4FCE01AE
:1037700046960E94353420E030E040E85FE3642D57
:10378000752D822D932D0E9458B087FF05C04AA247
:103790005EA22AA63EA65DCC0E94D95D0C94102E96
:1037A00080E00E94B75F0C94102E0E94206B0C9456
:1037B000102E20E030E040E050E46091B1117091B3
:1037C000B2118091B3119091B4110E9491B46B0128
:1037D0007C0188E50E943D8D882321F00E94DB8CCE
:1037E0006B017C01CE8ADF8AE88EF98E20E030E022
:1037F00040EF51E46091B5117091B6118091B7110D
:103800009091B8110E9491B46B017C0189E50E94EE
:103810003D8D882321F00E94DB8C6B017C01C982E5
:10382000DA82EB82FC8240905111509052116090EC
:1038300053117090541120914D1130914E114091BF
:103840004F11509150116E897F89888D998D0E94FA
:1038500090B44B015C012BE33FED4FEF5FE30E941F
:10386000B7B687FF02C00C94102E23E830E04EEF6D
:1038700052E4C501B4010E9458B0181614F40C9417
:10388000102EA3019201C701B6010E9490B46B01F2
:103890007C0124EF3DEF4FEE51E40E94B7B687FF65
:1038A00002C00C94102E23E830E04EEF52E4C70122
:1038B000B6010E9458B0181614F40C94102E0C94F3
:1038C000272E81E00E94B75F0E94598A0E94206BD8
:1038D0000C94102E81E080935C030C94102E85E4F0
:1038E0000E943D8D982E811102C00E94C7466FE450
:1038F000A62E62E0B62E71EBC72E71E1D72EE4E062
:10390000EE2EE0E1FE2E00E010E0812CD5018D913D
:103910005D010E943D8D882309F44EC0F60120818F
:10392000318142815381C158DF4F2883CF57D04026
:10393000C058DF4F3883C058D040CF57DF4F48833F
:10394000C158D040CE57DF4F5883C258D0400E9454
:10395000DB8CD6016D937D938D939C931397C15807
:10396000DF4F2881CF57D040C058DF4F3881C05833
:10397000D040CF57DF4F4881C158D040CE57DF4F9E
:103980005881C258D04003301105B1F00E9490B464
:103990009B01AC01F70160817181828193810E945A
:1039A00091B4D7016D937D938D939C931397C80128
:1039B0000E947D62882483940F5F1F4FB4E0CB0E7A
:1039C000D11CE4E0EE0EF11C0430110509F09ECF8D
:1039D000882019F00E94408C3FC09920E9F1C090E6
:1039E000BD11D090BE11E090BF11F090C011209198
:1039F000D3093091D4094091D5095091D609C70116
:103A0000B6010E94BDB00E94C2B6609321127093AD
:103A100022128093231290932412C0921112D092FA
:103A20001212E0921312F0921412C701B6010E9412
:103A3000D5B52FB7F8946093860F7093870F809356
:103A4000880F9093890F2FBF1092011210920212CB
:103A500010920312109204120E94D8910C94102E0E
:103A600080915D0990915E09883C910509F41AC521
:103A70000CF0A7C08C35910509F4E7C30CF053C0D6
:103A80008B34910509F4D5C25CF58231910509F4B6
:103A9000D8C3CCF497FF02C00C94102E823091054D
:103AA0000CF468C1419711F00C94102E5F988A981D
:103AB0009FB7F894809108018E7F809308019FBF83
:103AC00012980C94102E8A32910509F4AAC2803300
:103AD000910509F4AAC24F9711F00C94102ECFC192
:103AE0008235910509F4A4C37CF48D34910509F461
:103AF000BEC20CF4A2C28135910511F00C94102EB7
:103B00000E9488930C94102E8435910509F499C372
:103B10000CF492C38535910511F00C94102E0E947F
:103B200023930C94102E8137910509F469C314F581
:103B30008B36910509F478C364F48936910509F44C
:103B400067C30CF06DC38836910509F494C20C94D8
:103B5000102E8E36910509F4BDC28F36910509F4F9
:103B6000CCC28D36910511F00C94102E0E948494D5
:103B70000C94102E8737910509F403C47CF4833725
:103B8000910509F46CC30CF464C38637910511F0F8
:103B90000C94102E0E94A7910C94102E8937910539
:103BA00009F47AC40CF471C48C38910509F42CC35F
:103BB0008B39910511F00C94102E0E940C940C94EA
:103BC000102E8336F1E09F0711F40C943D2D0CF07C
:103BD00060C08D3D910509F4A1C6B4F58D3C9105F9
:103BE00009F44DC5ACF48B3C910509F4BEC40CF04E
:103BF000DAC4893C910511F00C94102E97EBE92E54
:103C000099E0F92E0FE412E024E0D22ED00E94C4F5
:103C1000833D910509F4DAC58C3D910509F46FC621
:103C20008E3C910511F00C94102EFFE4AF2EF2E0C3
:103C3000BF2EA1EBCA2EA1E1DA2EBAE1EB2EBAE03B
:103C4000FB2E00E010E088C58D3231E0930709F4C7
:103C5000DAC684F48E3051E0950709F4F0C78C324F
:103C6000A1E09A0709F4A5C6823E910511F00C94D3
:103C7000102E70C68F32B1E09B0711F40C94A6266B
:103C800014F40C9452268033914009F45BC70C94D1
:103C9000102E863F21E0920711F40C94AB2AD4F544
:103CA000843A41E0940711F40C94D029ACF48139A2
:103CB000A1E09A0711F40C94C8298239B1E09B075E
:103CC00011F40C94CC298039914011F00C94102EF1
:103CD0000E94C7460C94102E843FF1E09F0711F418
:103CE0000C94A52A14F00C94A82A8C3A914011F057
:103CF0000C94102E5AE1C52E5AE0D52E61EBE62E1B
:103D000061E1F62E7EEA272E71E1372E00E010E009
:103D10000C94D3298B3843E0940711F40C941C2C99
:103D20009CF48335A3E09A0711F40C94BC2A8438E0
:103D3000B3E09B0711F40C940B2B873F914011F0DB
:103D40000C94102E0C94AE2A8D38F3E09F0711F4DA
:103D50000C947C2C14F40C94482C8E3833E093078C
:103D600011F40C94352D873E934011F40C947C2D66
:103D70000C94102EE0905503F090560380E50E94BD
:103D80003D8D882359F00E949B8C4B015C0111E012
:103D9000672B682B692B31F410E004C010E0812CF4
:103DA000912C540183E50E943D8D882399F00E9457
:103DB000DB8C20E030E04AE754E40E94BDB00E9472
:103DC000DAB54B015C0111110CC0672B682B692B14
:103DD00041F43CC0111105C0E114F10411F00C9440
:103DE0007A2E83E090E09093F40F8093F30F81E0BC
:103DF000809354030E94C7460E94498D8114910408
:103E0000A104B104A9F18091FC0F9091FD0FA09144
:103E1000FE0FB091FF0F75016401C80ED91EEA1E96
:103E2000FB1E0E940D66DC01CB018C199D09AE09B9
:103E3000BF09B7FD04C0109254030C94102E80915A
:103E400054038823C1F30E94FA51EBCFE114F1042B
:103E500011F00C947A2E83E090E09093F40F80930D
:103E6000F30F81E0809354030E94C7460E94498D5E
:103E7000809154038823F9F20E94FA51F9CF80917E
:103E8000451290914612019719F40E940D6608C0E0
:103E900060914F1270915012809151129091521274
:103EA00000914B1210914C1220914D1230914E12F4
:103EB000601B710B820B930B28EE33E040E050E067
:103EC0000E9433B48091471290914812A0914912F8
:103ED000B0914A12BC01CD01620F731F841F951F60
:103EE0005CE3C52ED12CE12CF12CA70196010E9498
:103EF00033B4162F072FCA01B901A70196010E94FA
:103F000033B44B015C01CA01B90128E130E040E063
:103F100050E00E9433B42B013C01C9016DE671E011
:103F20000E9459B79E012F5F3F4F790161157105BE
:103F300099F00F931F939F928F925F924F929F934E
:103F40008F937F936F938AE992E09F938F933F9330
:103F50002F930E9429B026C0009789F00F931F93DA
:103F60009F928F925F924F929F938F938AE892E0F5
:103F70009F938F933F932F930E9429B013C04114B6
:103F8000510461047104B1F00F931F939F928F92BB
:103F90005F924F928EE792E09F938F933F932F9380
:103FA0000E9429B00FB6F894DEBF0FBECDBFEFEA76
:103FB000F4E223C081149104A104B10469F00F93C9
:103FC0001F939F928F9286E792E09F938F933F93E8
:103FD0002F930E9429B0E6CF0F931F9382E792E0C0
:103FE0009F938F933F932F930E9429B00F900F9030
:103FF0000F900F900F900F90DACF84918F010F5F89
:104000001F4F882321F00E94548DF801F6CFB7018D
:104010008EEA92E00E942F318AE00E94548D0C9427
:10402000102E0E94068A0C94102E0E9495840C94E7
:10403000102E0E9477A50C94102E8091451290911D
:104040004612019711F00C94102E82E090E09093AC
:104050004612809345120E940D6660934F12709332
:10406000501280935112909352120C94102E0E9471
:1040700001A40C94102E88E690E00E942763811121
:104080000C94102E8091591183FF02C00C94102EB5
:1040900083E50E943D8D8823C9F00E94DB8C0E943D
:1040A000D5B5709356106093551080E00E946C6AED
:1040B0000E94DB8C20E030E04AEA52E40E9458B0D3
:1040C000181614F00E9401A40E94DB8C0E942E326C
:1040D0000C94102E8EE40E943D8D882311F40C94D4
:1040E000102E0E94AB8C6093DD127093DE128093D1
:1040F000DF129093E0120C94102E83E50E940E8D37
:10410000882359F083E50E943D8D882319F00E9491
:10411000BB8C01C080E080935911EFEAF4E28491F6
:104120008F010F5F1F4F882321F00E94548DF801EB
:10413000F6CFEBECF2E084918F010F5F1F4F8823E5
:1041400021F00E94548DF801F6CF809159118823F7
:10415000A1F14BEBC42E42E0D42EE12CF12C20E057
:104160008091591190E00E2C02C0959587950A9484
:10417000E2F780FF17C0BB24B394B20E222319F0DC
:104180008CE20E94548DF60125913491F9018491BD
:1041900089010F5F1F4F882321F00E94548D9801E1
:1041A000F5CF2B2DFFEFEF1AFF0A32E0C30ED11C23
:1041B00046E0E416F104A1F61EC0E7ECF2E08491BB
:1041C0008F010F5F1F4F8823B1F00E94548DF801BB
:1041D000F6CF8AE50E940E8D81110C94D62A40916B
:1041E000491150914A1160914B1170914C1186E325
:1041F00097E00E94B6308AE00E94548D0C94102EF5
:104200000E94BC930C94102E0E94AC930C94102E20
:104210000E94F4951092F40F1092F30F0C94263034
:104220000E94EF930C94102E0E94E2930C94102E97
:1042300010925B030C94102E81E080935B030C942E
:10424000102E0E9439930C94102E0E9488920C9488
:10425000102E0E94C7460E94D8910C94102EEDEAB1
:10426000F3E084918F010F5F1F4F882321F00E949C
:10427000548DF801F6CFEFE9F3E084918F010F5FE1
:104280001F4F882321F00E94548DF801F6CFE8E8F3
:10429000F3E084918F010F5F1F4F882321F00E946C
:1042A000548DF801F6CFE8E7F3E084918F010F5FBA
:1042B0001F4F882321F00E94548DF801F6CFE7E6C6
:1042C000F3E084918F010F5F1F4F882321F00E943C
:1042D000548DF801F6CFE6E5F3E084918F010F5F8E
:1042E0001F4F882321F00E94548DF801F6CFE7E498
:1042F000F3E084918F010F5F1F4F882321F00E940C
:10430000548DF801F6CFE2E3F3E084918F010F5F63
:104310001F4F882321F00E94548DF801F6CFECE165
:10432000F3E084918F010F5F1F4F882321F00E94DB
:10433000548DF801F6CFE7E0F3E084918F010F5F31
:104340001F4F882321F00E94548DF801F6CFEAEE2A
:10435000F2E084918F010F5F1F4F882321F00E94AC
:10436000548DF801F6CFE2EDF2E084918F010F5FFA
:104370001F4F882311F40C94102E0E94548DF801C5
:10438000F4CFE1EAF4E084918F010F5F1F4F88239F
:1043900021F00E94548DF801F6CFE9E9F4E0849110
:1043A0008F010F5F1F4F882321F00E94548DF80169
:1043B000F6CF659903C00FE912E002C004EA12E0EB
:1043C000D8018D918D01882319F00E94548DF8CF6A
:1043D0008AE00E94548DE1E9F4E084918F010F5F3F
:1043E0001F4F882321F00E94548DF801F6CF809151
:1043F000030181FD03C00FE912E002C004EA12E0EC
:10440000F80181918F01882319F00E94548DF8CF13
:104410008AE00E94548DE9E8F4E084918F010F5FF7
:104420001F4F882321F00E94548DF801F6CF4A993E
:1044300003C00FE912E002C004EA12E0D8018D9136
:104440008D01882319F00E94548DF8CF8AE00E94D4
:10445000548DE1E8F4E084918F010F5F1F4F8823B2
:1044600021F00E94548DF801F6CF4B9903C00FE95B
:1044700012E002C004EA12E0F80181918F01882362
:1044800009F4B9CE0E94548DF7CF81E08093E409FE
:10449000809334110C94102E1092E4091092341170
:1044A0000C94102E88EC90E00E94276381110C94EC
:1044B000102E84E40E940E8D8823D1F10E94DB8CA3
:1044C00011E020E030E0A9010E9458B0811101C044
:1044D00010E010934511112359F10091570310E09A
:1044E0000E94DB8C000F111F000F111FF801EF5B02
:1044F000FE4E608371838283938320E030E0A901C4
:104500006091411170914211809143119091441139
:104510000E9458B081110CC080E090E0A0E4B0E4AB
:104520008093411190934211A0934311B093441191
:104530000E943E550C94102ED8018D918D010E9441
:104540000E8D882349F00E94DB8C0E94DAB5F701BA
:104550006083718382839383F4E0EF0EF11CD012A9
:10456000EBCF0E945E320C94102E15E8E12E19E07C
:10457000F12E0FE412E084E0D82ED00ED8018D91F8
:104580008D010E940E8D882339F00E94DB8CF7018B
:104590006083718382839383F4E0EF0EF11CD01269
:1045A000EDCF0C94102E83E50E940E8D8823D9F058
:1045B0000E94DB8CAB01BC0140937D0950937E09C6
:1045C00060937F09709380094093790950937A0929
:1045D00060937B0970937C0985E195E00E94B63079
:1045E0008AE00E94548D80E50E940E8D882399F008
:1045F0000E94DB8CAB01BC0140937D0950937E0986
:1046000060937F097093800988EF94E00E94B63030
:104610008AE00E94548D82E50E940E8D882399F0D5
:104620000E94DB8CAB01BC0140938109509382094D
:10463000609383097093840989ED94E00E94B630F9
:104640008AE00E94548D84E50E940E8D882311F427
:104650000C94102E0E94DB8CAB01BC0140937909B5
:1046600050937A0960937B0970937C098BEB94E0FB
:104670000E94B6308AE00E94548D0C94102E83E57F
:104680000E940E8D882351F00E94DB8C60939D095F
:1046900070939E0980939F099093A00984E50E94DE
:1046A0000E8D882351F00E94DB8C609399097093E2
:1046B0009A0980939B0990939C0982E40E940E8D35
:1046C000882351F00E949B8C609395097093960902
:1046D000809397099093980988E50E940E8D88230E
:1046E00051F00E94DB8C6093690970936A09809392
:1046F0006B0990936C0989E50E940E8D882351F017
:104700000E94DB8C60936D0970936E0980936F0932
:10471000909370098AE50E940E8D882351F00E94C3
:10472000DB8C609371097093720980937309909385
:10473000740985E40E940E8D882311F40C94102EC8
:104740000E94DB8C609375097093760980937709DA
:10475000909378090C94102ED5018D915D010E94E3
:104760000E8D882311F10E94DB8C2B013C01F70197
:1047700020813181428153810E9490B49B01AC0120
:10478000D6016D917D918D919C910E9491B4F6011D
:104790006083718382839383D7014D925D926D9282
:1047A0007C921397C8010E947D620F5F1F4FB4E097
:1047B000CB0ED11CE4E0EE0EF11C0330110561F6C6
:1047C0000E94408C0E94D8910C94102EEFEAF4E2E3
:1047D00084918F010F5F1F4F882321F00E94548D19
:1047E000F801F6CF83E50E940E8D882321F00E9408
:1047F000CC8C80934202E5E6F5E084918F010F5F57
:104800001F4F882321F00E94548DF801F6CF80912C
:104810004202811103C0E1E6F5E002C0EDE5F5E0FA
:1048200084918F010F5F1F4F882321F00E94548DC8
:10483000F801F6CFE5E5F5E084918F010F5F1F4F9A
:10484000882321F00E94548DF801F6CF4091E60FA5
:104850005091E70F6091E80F7091E90F83E595E0C3
:104860000E94B6304091EA0F5091EB0F6091EC0F2F
:104870007091ED0F80E595E00E94B6304091EE0F0B
:104880005091EF0F6091F00F7091F10F8DE495E072
:104890000E94B630E5E4F5E084918F010F5F1F4F71
:1048A000882321F00E94548DF801F6CF4091230215
:1048B00050912402609125027091260283E495E0D4
:1048C0000E94B6304091270250912802609129023F
:1048D00070912A0280E495E00E94B63040912B024C
:1048E00050912C0260912D0270912E028DE395E083
:1048F0000E94B6308AE00E94548D0C94102E83E5FD
:104900000E943D8D882311F40C94102E0E94AB8CD4
:104910007093300260932F020C94102E8DED90E076
:104920000E94276381110C94102E83E50E943D8D17
:10493000882311F40C94102E0091570310E00E946C
:10494000AB8C000F111FF801ED5FFD4F7183608389
:104950000C94102E80E50E940E8D882311F40C9487
:10496000102E0E94AB8CF62EC62ED72E83E50E9409
:104970003D8D882321F00E94AB8C8B0102C00FEF8C
:104980001FEFC8010196039710F00C94102ED7FE6C
:1049900002C00C94102EE5E7F5E088E28E0F9491AA
:1049A000F91611F40C94102E31968E13F8CF0C9446
:1049B000FF2F83E50E943D8D882319F00E94AB8C68
:1049C00002C064E071E07F8B6E8B80E50E943D8DBC
:1049D000882339F00E94AB8C6938F3E17F0730F40B
:1049E00002C068EE73E07A83698304C088E893E1CB
:1049F0009A838983BE016A5E7F4FCE0101960E9431
:104A0000CDA30C94102E85E40E943D8D811110C021
:104A100080E50E940E8D882391F00E94DB8C6093CC
:104A20008E0F70938F0F8093900F9093910F07C00C
:104A30000E94BB8C882361F3E0E4F4E272C089E455
:104A40000E940E8D882381F00E94DB8C2CEA35ECCD
:104A500047E25EE30E94BDB060938A0F70938B0FB4
:104A600080938C0F90938D0F84E40E940E8D882389
:104A700081F00E94DB8C2CEA35EC47E25EE30E9479
:104A80006DB56093920F7093930F8093940F9093F2
:104A9000950FEFEAF4E284918F010F5F1F4F882397
:104AA00021F00E94548DF801F6CF40918E0F509165
:104AB0008F0F6091900F7091910F85EA95E00E94A1
:104AC000B6302CEA35EC47E25EE360918A0F7091D4
:104AD0008B0F80918C0F90918D0F0E946DB5AB0163
:104AE000BC0181EA95E00E9499302CEA35EC47E25E
:104AF0005EE36091920F7091930F8091940F90916B
:104B0000950F0E94BDB0AB01BC018DE995E00E94FC
:104B100099308AE00E94548D0C94102E0E94548D7E
:104B2000F80184918F010F5F1F4F8111F7CF06EBC2
:104B300012E0D8018D918D01882309F45CCB0E948D
:104B4000548DF7CF80E50E940E8D882351F00E948E
:104B5000DB8C60933D1170933E1180933F119093D5
:104B6000401189E40E940E8D882381F00E94DB8C25
:104B70002CEA35EC47E25EE30E94BDB06093391148
:104B800070933A1180933B1190933C1184E40E94FE
:104B90000E8D882381F00E94DB8C2CEA35EC47E2F5
:104BA0005EE30E946DB5609335117093361180936A
:104BB000371190933811EFEAF4E284918F010F5F7F
:104BC0001F4F882321F00E94548DF801F6CF4091A9
:104BD0003D1150913E1160913F117091401181EB58
:104BE00095E00E94B6302CEA35EC47E25EE3609136
:104BF000391170913A1180913B1190913C110E94B2
:104C00006DB5AB01BC018DEA95E00E9499302CEAAC
:104C100035EC47E25EE36091351170913611809179
:104C20003711909138110E94BDB0AB01BC0189EAE7
:104C300095E00E9499308AE00E94548DF1C78091DE
:104C40007B00886080937B0081E480937C0080916E
:104C50007A00806480937A0080917A0086FDFCCF90
:104C6000609178008091790070E0782B072E000C1D
:104C7000880B990B0E945EB022EC35EF48E25FE3AF
:104C80000E946DB52CEA35EC47E257E30E9491B4DF
:104C9000AB01BC0185EB95E00E9499308AE00E944F
:104CA000548DBEC783E50E940E8D182F882371F0A6
:104CB0000E94DB8C0E94D5B57093020260930102C2
:104CC00021E0672B09F020E02093600980E50E9435
:104CD0000E8D882359F02091010230910202232B7E
:104CE00011F00E94CC8C809360099AC7111198C76B
:104CF000EFEAF4E284918F010F5F1F4F882321F0C8
:104D00000E94548DF801F6CF80916009811103C093
:104D10006EEA72E002C061EA72E084ED95E00E9402
:104D20002F31609101027091020283EC95E00E94A4
:104D3000FA30EFEBF5E084918F010F5F1F4F88236E
:104D400009F46EC70E94548DF801F5CF85E40E94E6
:104D50003D8D882321F00E94AB8C1B0102C0212CC9
:104D6000312C83E40E943D8D882339F00E94AB8C66
:104D7000E5967FAF6EAFE59706C0E5E0F0E0E5961B
:104D8000FFAFEEAFE59785E50E940E8DA8968FAF39
:104D9000A897882329F00E94CC8CA8968FAFA8975B
:104DA00037FC07C0C12CD12C56E1E52E53E4F52E7B
:104DB00006C0C12CD12C4CE8E42E42E4F42E83E54D
:104DC0000E943D8D882321F00E94DB8C6B017C01C9
:104DD0002114310411F4109257030E940D662B0127
:104DE0003C01DC01CB018C53964FAF4FBF4F8093FA
:104DF000960F9093970FA093980FB093990FC101BE
:104E00000196029718F407EC12E00BC00AED12E0CD
:104E1000D8018D918D01882309F4EDC90E94548D2C
:104E2000F7CFF80181918F01882319F00E94548DEA
:104E3000F8CF8AE00E94548D0E94B66A8FE7FFEF98
:104E40002F163F0619F48093591002C080935A1010
:104E5000C701B6010E94D5B5072E000C880B990B2F
:104E60000E945EB06EAF7FAF21968FAF21972296E2
:104E70009FAF229781E080930002E3964CAE5DAE37
:104E80006EAE7FAEE397A7964CAE5DAE6EAE7FAED4
:104E9000A79723961FAE239720E424962FAF24973D
:104EA0003CE128963FAF289746E42C964FAF2C97CD
:104EB00060961FAE609764961FAE649768961FAEAB
:104EC00068976C961FAE6C971AAE1BAE1CAE1DAEEB
:104ED0001EAA1FAA18AE19AEC12CD12C76013FE72D
:104EE000832E912CA12CB12C8FE790E0A0E0B0E0B4
:104EF0008EA79FA7A8ABB9ABA3961CAE1DAE1EAEE6
:104F00001FAEA39791E0AC969FAFAC971BAA1AAACD
:104F10001EA21AA600E010E080910002882309F486
:104F200030C20E940D666AA37BA38CA39DA38091CF
:104F30005710882309F408C10E94CA6AAFEF2A16E5
:104F40003A0659F4B0914810BEA3E0914910EAA77F
:104F500000914A1010914B100AC0F0915C10FEA312
:104F600020915D102AA700915E1010915F102EA174
:104F70003AA5A80160966FAD609764967FAD64977F
:104F800068968FAD68976C969FAD6C970E9458B0ED
:104F900087FF0EC03EA160963FAF60974AA564961A
:104FA0004FAF649768960FAF68976C961FAF6C977A
:104FB0002EA13AA5A80123966FAD239724967FAD25
:104FC000249728968FAD28972C969FAD2C970E94FA
:104FD000B7B6181674F45EA123965FAF23978AA51F
:104FE00024968FAF249728960FAF28972C961FAF43
:104FF0002C978091960F9091970FA091980FB09158
:10500000990F2AA13BA14CA15DA1281B390B4A0B8A
:105010005B0B57FD12C00E94EC448AA19BA1ACA17E
:10502000BDA18C53964FAF4FBF4F8093960F909377
:10503000970FA093980FB093990FAC963FADAC9794
:105040002EAD332309F45CC03FAD21964FAD2197BF
:1050500022965FAD22976EA17AA5C8010E94B7B6CD
:1050600018160CF071C04AA15BA16CA17DA1441976
:10507000550966097709DB01CA0188589341A109DE
:10508000B109B7FD61C08EA59FA5A8A9B9A98819C6
:105090009909AA09BB09B595A79597958795EFEF4B
:1050A0002E163E0619F48093591002C080935A10B0
:1050B000A3964CAF5DAF6EAF7FAFA397FEAD60968A
:1050C000FFAF60972FAD64962FAF649721963FADE9
:1050D000219768963FAF689722964FAD22976C96BE
:1050E0004FAF6C978AA19BA1ACA1BDA1E3968CAFF9
:1050F0009DAFAEAFBFAFE397AC961FAEAC9724C0E9
:105100003FAD21964FAD219722965FAD22976EA1BC
:105110007AA5C8010E9458B087FF16C08AA19BA13A
:10512000ACA1BDA1E3962CAD3DAD4EAD5FADE39717
:10513000821B930BA40BB50BAC01BD014858534126
:105140006109710977FFF5C520E030E040EA51E4DC
:105150006EAD7FAD21968FAD219722969FAD2297A0
:105160000E9491B49B01AC016EA17AA5C8010E9476
:10517000B7B618166CF4E4EAF6E084918F010F5F7D
:105180001F4F882309F44CC50E94548DF801F5CFB8
:1051900080E398EFAFEFBFEFA7962CAD3DAD4EADDE
:1051A0005FADA797821B930BA40BB50B2AA13BA164
:1051B0004CA15DA1820F931FA41FB51FB7FD0FC0A7
:1051C0000E9438948AE00E94548D8AA19BA1ACA1D0
:1051D000BDA1A7968CAF9DAFAEAFBFAFA7978AA179
:1051E0009BA1ACA1BDA1880F991FAA1FBB1FE3966D
:1051F0002CAD3DAD4EAD5FADE397821B930BA40B81
:10520000B50B84199509A609B70981389F44A241B5
:10521000B10568F0E6E8F6E084918F010F5F1F4F5B
:10522000882309F4FDC40E94548DF801F5CF4AA9E2
:105230005BA9E5968EAD9FADE597841795070CF0B9
:105240006BCEE9E2F6E084918F010F5F1F4F882358
:1052500021F00E94548DF801F6CF9FEF29163906F0
:1052600019F008E213E002C002EB12E0B80187E196
:1052700096E0F5D7B701A60183E196E077D78AE0FB
:105280000E94548DB80181E096E0E9D74EA95FA94C
:1052900068AD79AD8DEF95E069D78AE00E94548DB5
:1052A000B8018BEE95E0DBD74AAD5BAD6CAD7DAD63
:1052B00087EE95E05BD78AE00E94548DA896AFAD4B
:1052C000A897AA2309F4ACC42320209469F5C092BE
:1052D0003D11D0923E11E0923F11F09240112CEA24
:1052E00035EC47E25EE36EA97FA988AD99AD0E94D7
:1052F000BDB06093391170933A1180933B11909334
:105300003C112CEA35EC47E25EE36AAD7BAD8CAD37
:105310009DAD0E946DB560933511709336118093E9
:105320003711909338117CC4C0928E0FD0928F0F9A
:10533000E092900FF092910F2CEA35EC47E25EE399
:105340006EA97FA988AD99AD0E94BDB060938A0F08
:1053500070938B0F80938C0F90938D0F2CEA35EC0C
:1053600047E25EE36AAD7BAD8CAD9DAD0E946DB54D
:105370006093920F7093930F8093940F9093950F77
:105380004FC48091000281114BC40E94B66A48C488
:1053900081E00E94C76144C480E00E94C76140C4AC
:1053A0000E9459913DC4F101EE5AF141FBA3EAA3D9
:1053B000D1018D911D01882309F49AC0F701408025
:1053C000518062807380F801ED5DFD4F2081318155
:1053D00042815381F801EA51F04F608171818281ED
:1053E00093810E9491B420E030E040E05FE30E94AE
:1053F000BDB09B01AC01C301B2010E94B7B6181643
:1054000044F4F801EB55FC4E85909590A590B4902E
:1054100003C0812C912C5401F801E35BFE4E2081E6
:10542000318142815381C301B2010E9490B49B013A
:10543000AC01C501B4010E9490B44B015C0120E0B5
:1054400030E040EA51EC0E94B7B687FD29C020E069
:1054500030E040EA51E4C501B4010E9458B018168A
:10546000FCF0D6012D913D914D915C91C501B401A7
:105470000E9490B49B01AC01C301B2010E9491B49F
:10548000F7016083718382839383D6018D929D920D
:10549000AD92BC9213978AA19BA10E947D6228C005
:1054A000E0E4F4E284918F010F5F1F4F882321F025
:1054B0000E94548DF801F6CFE8E1F7E084918F0166
:1054C0000F5F1F4F882321F00E94548DF801F6CF03
:1054D00088E290E09A83898388EC90E09F8B8E8BA2
:1054E000BE016F5F7F4FCE0146960E94CDA398C349
:1054F000B4E0CB0ED11C0C5F1F4FE4E0EE0EF11CAC
:105500000C30110509F04FCF0E94408C0E94D891B9
:1055100083E992E09F8B8E8B04E610E01A83098367
:10552000BE016A5E7F4FCE0101960E94CDA38AEB39
:1055300092E09F8B8E8B1A830983BE016A5E7F4F38
:10554000CE0101960E94CDA36BC30E94118068C357
:105550000E94297B65C30E94079A62C383E50E946B
:105560000E8D882319F00E94CC8C01C081E091E05F
:1055700089270E94109654C3EFEAF4E284918F01C8
:105580000F5F1F4F882321F00E94548DF801F6CF42
:10559000E0E5F7E084918F010F5F1F4F882311F43E
:1055A0000C94E9200E94548DF801F4CF0E94DB8C0A
:1055B0006B017C0120E030E040EA51EC0E94B7B67C
:1055C00087FD1BC020E030E040EA51E4C701B6018E
:1055D0000E9458B018168CF0C0924911D0924A110E
:1055E000E0924B11F0924C11C0923602D0923702E9
:1055F000E0923802F09239020AC1E9E3F7E08491BF
:105600008F010F5F1F4F882311F40C94FB200E9421
:10561000548DF801F4CF0E94C7468BE40E943D8D63
:10562000882399F00E94DB8C6B017C0120E030E044
:10563000A9010E94B7B687FD08C0C0926509D09243
:105640006609E0926709F092680982E50E943D8D43
:10565000882361F00E94DB8C6B017C0120E030E04C
:10566000A9010E9458B087FF89C006C0C12CD12C67
:1056700040E8E42E4FEBF42E84E40E943D8D882315
:1056800029F00E94DB8C4B015C0106C0812C912C1F
:1056900030E8A32E3FEBB32E87E50E943D8D882393
:1056A00029F00E94DB8C2B013C0106C0412C512CBF
:1056B00020E8622E2FEB722E88E40E943D8D882315
:1056C00039F00E94DB8C6AA37BA38CA39DA308C046
:1056D00020E030E040E85FEB2AA33BA34CA35DA3AE
:1056E00020E030E0A901C501B4010E94B7B687FDF2
:1056F00045C020E030E0A901C301B2010E94B7B665
:1057000087FD3CC020E030E0A9016AA17BA18CA10B
:105710009DA10E94B7B687FD31C020E030E0A9010D
:10572000C501B4010E9458B0882391F120E030E017
:1057300040E05FE3C501B4010E94BDB06B017C0194
:105740002AA13BA14CA15DA1C301B2010E94BDB041
:105750004B015C01A7019601C701B6010E94BDB0D3
:105760002BED3FE049E450E40E94BDB09B01AC0149
:10577000C501B4010E946DB56B017C0120E030E0F1
:10578000A901C701B6010E94B7B687FF04C00BC0CC
:10579000C12CD12C7601C0926109D0926209E092AD
:1057A0006309F0926409EFEAF4E284918F010F5FDC
:1057B0001F4F882321F00E94548DF801F6CF4091AD
:1057C000650950916609609167097091680985E6DD
:1057D00097E0CCD4EFE5F7E084918F010F5F1F4F86
:1057E000882321F00E94548DF801F6CFC090610902
:1057F000D0906209E0906309F090640920E030E005
:10580000A901C701B6010E9458B0882339F042E0CF
:10581000C701B6010E94918F0C94FB20EAE5F7E0E6
:1058200084918F010F5F1F4F882311F40C94FB208C
:105830000E94548DF801F4CF83E50E940E8D8111F2
:1058400006C09FE4E92E92E0F92E10E012C00E94FB
:10585000DB8C6B017C0110E0B701A601812F0E9457
:105860003B461F5F1530C1F7ECCF1F5F143009F4C2
:10587000D7C1D7018D917D010E940E8D8823A9F398
:105880000E94DB8CAB01BC01812F0E943B46EDCF17
:1058900083E50E943D8D882329F00E94AB8C162F52
:1058A000072F02C010E000E080E50E943D8D8823B4
:1058B00019F00E94BB8C01C08FEF9091160A9923BA
:1058C00009F4AEC1E82FF0E0E55BFD4FE081F0E0C8
:1058D000EE0FFF1FE25FF54F812F902F8130B0E177
:1058E0009B0710F080E090E1918380830E948DA05F
:1058F00088E00E947DA094C18091160A882309F453
:105900008FC1EFEAF4E284918F010F5F1F4F88236C
:1059100021F00E94548DF801F6CFEFE8F7E0849172
:105920008F010F5F1F4F882321F00E94548DF801D3
:10593000F6CFEFEAF4E284918F010F5F1F4F8823C7
:1059400021F00E94548DF801F6CF6091120A7091F7
:10595000130A80E090E00E945CB020E030E048EC68
:1059600052E40E94BDB020E030E040E859E30E94DC
:10597000BDB0AB01BC018BE897E0F8D380E00E949A
:105980001B46AB01BC0188E897E0F0D36091140A94
:105990007091150A80E090E00E945CB020E030E059
:1059A00048EC52E40E94BDB020E030E040E859E30A
:1059B0000E94BDB0AB01BC0183E897E0D7D381E082
:1059C0000E941B46AB01BC0180E897E0CFD36091F9
:1059D0000E0A70910F0A80E090E00E945CB020E017
:1059E00030E048EC52E40E94BDB020E030E040E8F6
:1059F00059E30E94BDB0AB01BC018BE797E0B6D381
:105A000082E00E941B46AB01BC0188E797E0AED361
:105A10006091100A7091110A80E090E00E945CB0E1
:105A200020E030E048EC52E40E94BDB020E030E0DD
:105A300040E859E30E94BDB0AB01BC0183E797E0A9
:105A400095D383E00E941B46AB01BC0180E797E041
:105A50008DD303E013E0F80181918F01882311F4C5
:105A60000C94FB200E94548DF6CF8091160A882357
:105A700009F4D6C00E94D6A0D3C080E50E943D8D17
:105A8000882331F00E94BB8C8093180A11E001C07A
:105A900010E083E50E943D8D882329F00E94CC8C84
:105AA0008093190A01C011110E944991EFEAF4E2B2
:105AB00084918F010F5F1F4F882321F00E94548D26
:105AC000F801F6CF8091190A81110CC005E013E0AE
:105AD000D8018D918D01882311F40C94FB200E9434
